:020000040800F2
:1000000000000220293300082532000827320008AA
:10001000293200082B3200082D32000800000000B1
:100020000000000000000000000000002F32000867
:100030003132000800000000333200083532000879
:1000400079330008793300087933000879330008E0
:1000500079330008793300087933000879330008D0
:1000600079330008793300083D32000879330008FD
:1000700079330008793300087933000879330008B0
:100080007933000879330008793300080000000054
:1000900000000000000000000000000079330008AC
:1000A0007933000879330008793300087933000880
:1000B0007933000879330008793300087933000870
:1000C0007933000879330008793300087933000860
:1000D0007933000849320008793300080000000035
:1000E00079330008793300087933000800000000F4
:1000F000000000000000000000000000793300084C
:1001000000000000793300087933000879330008D3
:1001100000000000000000000000000000000000DF
:1001200079330008793300087933000879330008FF
:10013000793300080000000000000000000000000B
:10014000000000000000000000000000593200081C
:1001500079330008793300087933000879330008CF
:100160007933000879330008000000000000000027
:10017000000000000000000000000000000000007F
:1001800000000000793300080000000000000000BB
:080190007933000879330008FF
:1001C0004FF0FF0C1CEAD0521EBF1CEAD15392EA3A
:1001D0000C0F93EA0C0F6FD01A4480EA010C400216
:1001E00018BF5FEA41211ED04FF0006343EA501070
:1001F00043EA5111A0FB01310CF00040B1F5000FB2
:100200003EBF490041EAD3715B0040EA010062F160
:100210007F02FD2A1DD8B3F1004F40EBC25008BF4A
:1002200020F00100704790F0000F0CF0004C08BF68
:1002300049024CEA502040EA51207F3AC2BFD2F135
:10024000FF0340EAC250704740F400004FF0000343
:10025000013A5DDC12F1190FDCBF00F0004070477D
:10026000C2F10002410021FA02F1C2F1200200FABB
:1002700002FC5FEA310040F1000053EA4C0308BF82
:1002800020EADC70704792F0000F00F0004C02BFD3
:10029000400010F4000F013AF9D040EA0C0093F04E
:1002A000000F01F0004C02BF490011F4000F013BA8
:1002B000F9D041EA0C018FE70CEAD15392EA0C0F16
:1002C00018BF93EA0C0F0AD030F0004C18BF31F081
:1002D000004CD8D180EA010000F00040704790F057
:1002E000000F17BF90F0004F084691F0000F91F0FB
:1002F000004F14D092EA0C0F01D142020FD193EAC1
:100300000C0F03D14B0218BF084608D180EA010048
:1003100000F0004040F0FE4040F40000704740F024
:10032000FE4040F44000704781F0004102E000BF11
:1003300083F0004330B54FEA41044FEA430594EAA5
:10034000050F08BF90EA020F1FBF54EA000C55EAE0
:10035000020C7FEA645C7FEA655C00F0E2804FEAB1
:100360005454D4EB5555B8BF6D420CDD2C4480EA93
:10037000020281EA030382EA000083EA010180EAC3
:10038000020281EA0303362D88BF30BD11F0004F11
:100390004FEA01314FF4801C4CEA113102D0404247
:1003A00061EB410113F0004F4FEA03334CEA133382
:1003B00002D0524263EB430394EA050F00F0A7809A
:1003C000A4F10104D5F1200E0DDB02FA0EFC22FA95
:1003D00005F2801841F1000103FA0EF2801843FA89
:1003E00005F359410EE0A5F120050EF1200E012A7A
:1003F00003FA0EFC28BF4CF0020C43FA05F3C018B8
:1004000051EBE37101F0004507D54FF0000EDCF130
:10041000000C7EEB00006EEB0101B1F5801F1BD3D9
:10042000B1F5001F0CD349085FEA30004FEA3C0CDD
:1004300004F101044FEA445212F5800F80F09A80D3
:10044000BCF1004F08BF5FEA500C50F1000041EBD7
:10045000045141EA050130BD5FEA4C0C404141EBDB
:100460000101013C28BFB1F5801FE9D291F0000FD6
:1004700004BF01460020B1FA81F308BF2033A3F185
:100480000B03B3F120020CDA0C3208DD02F1140C7C
:10049000C2F10C0201FA0CF021FA02F10CE002F1B7
:1004A0001402D8BFC2F1200C01FA02F120FA0CFCB0
:1004B000DCBF41EA0C019040E41AA2BF01EB0451F9
:1004C000294330BD6FEA04041F3C1CDA0C340EDCF7
:1004D00004F11404C4F1200220FA04F001FA02F33A
:1004E00040EA030021FA04F345EA030130BDC4F1F8
:1004F0000C04C4F1200220FA02F001FA04F340EAED
:100500000300294630BD21FA04F0294630BD94F09D
:10051000000F83F4801306BF81F480110134013D84
:100520004EE77FEA645C18BF7FEA655C29D094EAF5
:10053000050F08BF90EA020F05D054EA000C04BF73
:100540001946104630BD91EA030F1EBF002100205E
:1005500030BD5FEA545C05D14000494128BF41F0FD
:10056000004130BD14F580043CBF01F5801130BD61
:1005700001F0004545F0FE4141F470014FF00000EC
:1005800030BD7FEA645C1ABF194610467FEA655C9D
:100590001CBF0B46024650EA013406BF52EA03353F
:1005A00091EA030F41F4002130BD00BF90F0000F2D
:1005B00004BF0021704730B54FF4806404F1320469
:1005C0004FF000054FF0000150E700BF90F0000F22
:1005D00004BF0021704730B54FF4806404F1320449
:1005E00010F0004548BF40424FF000013EE700BF19
:1005F00042004FEAE2014FEA31014FEA02701FBFA9
:1006000012F07F4393F07F4F81F06051704732F0DA
:100610007F4208BF704793F07F4F04BF41F4002131
:10062000704730B54FF4607401F0004521F000418F
:100630001CE700BF50EA010208BF704730B54FF019
:1006400000050AE050EA010208BF704730B511F01A
:10065000004502D5404261EB41014FF4806404F152
:1006600032045FEA915C3FF4D8AE4FF003025FEAD8
:10067000DC0C18BF03325FEADC0C18BF033202EB5C
:10068000DC02C2F1200300FA03FC20FA02F001FAB6
:1006900003FE40EA0E0021FA02F11444BDE600BF59
:1006A00080F0004002E000BF81F0004142001FBF27
:1006B0005FEA410392EA030F7FEA226C7FEA236C30
:1006C0006AD04FEA1262D2EB1363C1BFD218414025
:1006D00048404140B8BF5B42192B88BF704710F0BB
:1006E000004F40F4000020F07F4018BF404211F05E
:1006F000004F41F4000121F07F4118BF494292EAC6
:10070000030F3FD0A2F1010241FA03FC10EB0C00F1
:10071000C3F1200301FA03F100F0004302D549427E
:1007200060EB4000B0F5000F13D3B0F1807F06D32B
:1007300040084FEA310102F10102FE2A51D2B1F123
:10074000004F40EBC25008BF20F0010040EA030018
:100750007047490040EB0000013A28BFB0F5000F98
:10076000EDD2B0FA80FCACF1080CB2EB0C0200FA4E
:100770000CF0AABF00EBC25052421843BCBFD0409D
:100780001843704792F0000F81F4000106BF80F417
:1007900000000132013BB5E74FEA41037FEA226CDA
:1007A00018BF7FEA236C21D092EA030F04D092F0A5
:1007B000000F08BF0846704790EA010F1CBF0020D9
:1007C000704712F07F4F04D1400028BF40F0004036
:1007D000704712F100723CBF00F50000704700F056
:1007E000004343F0FE4040F4000070477FEA22627D
:1007F00016BF08467FEA23630146420206BF5FEA4E
:10080000412390EA010F40F4800070474FF000034D
:1008100004E000BF10F0004348BF40425FEA000C14
:1008200008BF704743F0964301464FF000001CE0BC
:1008300050EA010208BF70474FF000030AE000BF12
:1008400050EA010208BF704711F0004302D5404250
:1008500061EB41015FEA010C02BF844601460020C2
:1008600043F0B64308BFA3F18053A3F50003BCFADD
:100870008CF2083AA3EBC25310DB01FA02FC63448A
:1008800000FA02FCC2F12002BCF1004F20FA02F291
:1008900043EB020008BF20F00100704702F1200284
:1008A00001FA02FCC2F1200250EA4C0021FA02F2E5
:1008B00043EB020008BF20EADC70704753B94AB925
:1008C000002908BF00281CBF4FF0FF314FF0FF3058
:1008D00000F0E2B8ADF1080C6DE904CE07F070FB52
:1008E000DDF804E0DDE9022304B0704700F13401D3
:1008F00091E838009C46A6464CF8045D90E8FF0F4E
:10090000E54600BD90EC210B704700BF80EC210B49
:10091000704700BF90EC200B704700BF80EC200BAD
:10092000704700BFD0EC200B704700BFC0EC200B1D
:10093000704700BFF0EC0201F0EC0211F0EC022174
:10094000F0EC0231F0EC0241F0EC0251F0EC02610B
:10095000F0EC0271F0EC0281F0EC0291F0EC02A1FB
:10096000F0EC02B1F0EC02C1F0EC02D1F0EC02E1EB
:10097000F0EC02F1704700BFE0EC0201E0EC021184
:10098000E0EC0221E0EC0231E0EC0241E0EC02514B
:10099000E0EC0261E0EC0271E0EC0281E0EC02913B
:1009A000E0EC02A1E0EC02B1E0EC02C1E0EC02D12B
:1009B000E0EC02E1E0EC02F1704700BFB0FC018125
:1009C000B0FC0191B0FC01A1B0FC01B1704700BFC7
:1009D000A0FC0181A0FC0191A0FC01A1A0FC01B13F
:1009E000704700BFEC4600B52DE900502DE9FF1F10
:1009F0004FF000032DE90C0001A907F09BFDDDF885
:100A000040E012B0704700BFEC4600B52DE9005041
:100A10002DE9FF1F4FF000032DE90C0001A907F09D
:100A2000C5FDDDF840E012B0704700BFEC4600B5F0
:100A30002DE900502DE9FF1F4FF000032DE90C00B8
:100A400001A907F0D5FDDDF840E012B0704700BF06
:100A5000EC4600B52DE900502DE9FF1F4FF00003D3
:100A60002DE90C0001AB07F099FDDDF840E012B074
:100A7000704700BFEC4600B52DE900502DE9FF1F7F
:100A80004FF000032DE90C0001AA07F009FEDDF884
:100A900040E012B0704700BF704700BF0000000088
:100AA00002780B78012A28BF9A4240F0D8806DE97D
:100AB000044540EA0104CDE902676FF0000C4FEAFB
:100AC00044721AB380EA010414F0070F6BD100F0EE
:100AD000070420F0070004F0030521F007014FEAA6
:100AE000C505F0E8042314F0040FF1E804670CFADC
:100AF00005F462EA040266EA04060BD063EA040322
:100B0000624667EA0407664604E000BFF0E8042393
:100B1000F1E8046782FA4CF582EA0604A4FA8CF440
:100B20006CBB83FA4CF583EA0705A5FA8CF595B9F9
:100B300050E9022351E9026782FA4CF582EA060481
:100B4000A4FA8CF483FA4CF583EA0705A5FA8CF530
:100B50002543DBD09CB92DBAB5FA85F424F00704FF
:100B600027FA04F1DDE9026723FA04F303F0FF003A
:100B700001F0FF01FDE80445A0EB0100704724BA35
:100B8000B4FA84F424F0070426FA04F1DDE90267DC
:100B900022FA04F202F0FF0001F0FF01FDE8044533
:100BA000A0EB0100704714F0030F3CD110F00304D8
:100BB00028D150F8082B51F8083B82FA4CF582EA0C
:100BC0000305A5FA8CF55DB950F8042C51F8043CE6
:100BD00082FA4CF582EA0305A5FA8CF5002DE8D0DF
:100BE0002DBAB5FA85F424F0070423FA04F122FAA9
:100BF00004F202F0FF0001F0FF01FDE80445A0EB64
:100C0000010070474FEAC40420F0030050F8082B9D
:100C100021F0030151F8083B0CFA04F462EA0402E3
:100C200063EA0403C9E710F003041DD0A1EB04013B
:100C300020F00300E40750F8042B06D012D28B7882
:100C40005FFAA2F4E41A06D12BB1CB785FFAB2F4C2
:100C5000E41A00D133B920465DF8104B7047A2EB7F
:100C60000300704701F1040150F8042BCC0721F078
:100C7000030151F8043B48D824D222F07F4482FA81
:100C80004CF594EA1325A5FA8CF50AD165B951F80B
:100C9000043B84EA0204B4EB036F0ED150F8042B3A
:100CA000EBE74FEA132355E035F07F454DD1087847
:100CB000FDE80445C0F1000070474FEA126203F0FE
:100CC000FF0347E002EA1C4482FA4CF594EA13451C
:100CD000A5FA8CF50AD165B951F8043B84EA0204FF
:100CE000B4EB034F0CD150F8042BEBE74FEA13435E
:100CF00030E015EA1C4528D10B884FEA124229E062
:100D00004FEA124203EA1C4324E002F0FF0482FA95
:100D10004CF594EA1365A5FA8CF50AD165B951F83A
:100D2000043B84EA0204B4EB032F09D150F8042BEE
:100D3000EBE74FEA13630DE015F0FF0F05D10B68E9
:100D40004FEA122223F07F4304E04FF00000FDE859
:100D50000445704712BA1BBA82FA4CF482EA0304C3
:100D6000A4FA8CF5B5FA85F402FA04F203FA04F356
:100D70004FEA1260FDE80445A0EB1360704700BF26
:100D8000844641EA000313F003036DD1403A41D396
:100D900051F8043B40F8043B51F8043B40F8043B55
:100DA00051F8043B40F8043B51F8043B40F8043B45
:100DB00051F8043B40F8043B51F8043B40F8043B35
:100DC00051F8043B40F8043B51F8043B40F8043B25
:100DD00051F8043B40F8043B51F8043B40F8043B15
:100DE00051F8043B40F8043B51F8043B40F8043B05
:100DF00051F8043B40F8043B51F8043B40F8043BF5
:100E000051F8043B40F8043B51F8043B40F8043BE4
:100E1000403ABDD2303211D351F8043B40F8043B84
:100E200051F8043B40F8043B51F8043B40F8043BC4
:100E300051F8043B40F8043B103AEDD20C3205D394
:100E400051F8043B40F8043B043AF9D2043208D08C
:100E5000D2071CBF11F8013B00F8013B01D30B88FE
:100E600003806046704700BF082A13D38B078DD0DC
:100E700010F003038AD0C3F10403D21ADB071CBFAE
:100E800011F8013B00F8013B80D331F8023B20F818
:100E9000023B7BE7043AD9D3013A11F8013B00F851
:100EA000013BF9D20B7803704B7843708B788370D9
:100EB00060467047000000000000000000000000D5
:100EC00001F0FF01102A2BDB10F0070F08D010F8FB
:100ED000013B013A8B422DD010F0070F42B3F6D1FF
:100EE000F0B441EA012141EA014122F007047FF018
:100EF00000070023F0E80256083C85EA010586EA6F
:100F0000010685FA47F5A3FA87F586FA47F6A5FAAA
:100F100087F68EB9EED1F0BC01F0FF0102F00702B6
:100F200032B110F8013B013A83EA010313B1F8D161
:100F30000020704701387047002D06BF3546033842
:100F4000073815F0010F07D1013015F4807F02BF7B
:100F5000013015F4C03F0130F0BC0138704700BFCC
:100F60000000000000000000000000000000000081
:100F70000000000000000000000000000000000071
:100F800030B490F800F020F007016FF0000C10F082
:100F9000070491F820F040F048804FF000046FF013
:100FA0000700D1E9002391F840F000F1080082FA2F
:100FB0004CF2A4FA8CF283FA4CF3A2FA8CF34BBBFA
:100FC000D1E9022382FA4CF200F10800A4FA8CF273
:100FD00083FA4CF3A2FA8CF3E3B9D1E9042382FA41
:100FE0004CF200F10800A4FA8CF283FA4CF3A2FA56
:100FF0008CF37BB9D1E9062301F1200182FA4CF28E
:1010000000F10800A4FA8CF283FA4CF3A2FA8CF3F4
:10101000002BC6D0002A04BF04301A4612BAB2FA16
:1010200082F200EBD20030BC7047D1E9002304F01B
:101030000305C4F100004FEAC50514F0040F91F850
:1010400040F00CFA05F562EA05021CBF63EA0503ED
:1010500062464FF00004AAE770B54FF0FF0C4CF465
:10106000E06C1CEA11541DBF1CEA135594EA0C0FE6
:1010700095EA0C0F00F0DEF82C4481EA030621EA21
:101080004C5123EA4C5350EA013518BF52EA03355C
:1010900041F4801143F4801338D0A0FB02CE4FF00E
:1010A0000005E1FB02E506F00042E0FB03E54FF03E
:1010B0000006E1FB03569CF0000F18BF4EF0010E36
:1010C000A4F1FF04B6F5007F64F5407404D25FEA32
:1010D0004E0E6D4146EB060642EAC62141EA5551E5
:1010E0004FEAC52040EA5E504FEACE2EB4F1FD0C27
:1010F00088BFBCF5E06F1ED8BEF1004F08BF5FEAA5
:10110000500E50F1000041EB045170BD06F0004656
:1011100046EA010140EA020081EA0301B4EB5C0403
:10112000C2BFD4EB0C0541EA045170BD41F48011FB
:101130004FF0000E013C00F3AB8014F1360FDEBF20
:10114000002001F0004170BDC4F10004203C35DAFC
:101150000C341BDC04F11404C4F1200500FA05F37F
:1011600020FA04F001FA05F240EA020001F0004220
:1011700021F0004110EBD37021FA04F642EB060196
:101180005EEA430E08BF20EAD37070BDC4F10C04C0
:10119000C4F1200500FA04F320FA05F001FA04F284
:1011A00040EA020001F0004110EBD37041F1000170
:1011B0005EEA430E08BF20EAD37070BDC4F120057B
:1011C00000FA05F24EEA020E20FA04F301FA05F2E3
:1011D00043EA020321FA04F001F0004121FA04F28B
:1011E00020EA020000EBD3705EEA430E08BF20EA5B
:1011F000D37070BD94F0000F0FD101F00046400095
:1012000041EB010111F4801F08BF013CF7D041EA16
:10121000060195F0000F18BF704703F0004652001A
:1012200043EB030313F4801F08BF013DF7D043EAEB
:101230000603704794EA0C0F0CEA135518BF95EAA1
:101240000C0F0CD050EA410618BF52EA4306D1D128
:1012500081EA030101F000414FF0000070BD50EA47
:10126000410606BF1046194652EA430619D094EAD1
:101270000C0F02D150EA013613D195EA0C0F05D1BB
:1012800052EA03361CBF104619460AD181EA03010F
:1012900001F0004141F0FE4141F470014FF00000C7
:1012A00070BD41F0FE4141F4780170BD70B54FF062
:1012B000FF0C4CF4E06C1CEA11541DBF1CEA1355E2
:1012C00094EA0C0F95EA0C0F00F0A7F8A4EB0504C4
:1012D00081EA030E52EA03354FEA013100F08880BB
:1012E0004FEA03334FF0805545EA131343EA126384
:1012F0004FEA022245EA111545EA10654FEA002639
:101300000EF000419D4208BF964244F1FD0404F5F1
:10131000407402D25B084FEA3202B61A65EB03054D
:101320005B084FEA32024FF480104FF4002CB6EB0A
:10133000020E75EB030E22BFB61A754640EA0C008A
:101340005B084FEA3202B6EB020E75EB030E22BFCA
:10135000B61A754640EA5C005B084FEA3202B6EB0B
:10136000020E75EB030E22BFB61A754640EA9C00CA
:101370005B084FEA3202B6EB020E75EB030E22BF9A
:10138000B61A754640EADC0055EA060E18D04FEA58
:10139000051545EA16754FEA06164FEAC30343EAF8
:1013A00052734FEAC2025FEA1C1CC0D111F4801FC5
:1013B0000BD141EA00014FF000004FF0004CB6E7BE
:1013C00011F4801F04BF01430020B4F1FD0C88BF5D
:1013D000BCF5E06F3FF6AFAEB5EB030C04BFB6EB68
:1013E000020C5FEA500C50F1000041EB045170BD5B
:1013F0000EF0004E4EEA113114EB5C04C2BFD4EB88
:101400000C0541EA045170BD41F480114FF0000E0B
:10141000013C90E645EA060E8DE60CEA135594EA87
:101420000C0F08BF95EA0C0F3FF43BAF94EA0C0F8A
:101430000AD150EA01347FF434AF95EA0C0F7FF4FF
:1014400025AF104619462CE795EA0C0F06D152EA53
:1014500003353FF4FDAE1046194622E750EA410637
:1014600018BF52EA43067FF4C5AE50EA41047FF448
:101470000DAF52EA43057FF4EBAE12E74FF0FF3CAD
:1014800006E000BF4FF0010C02E000BF4FF0010C7E
:101490004DF804CD4FEA410C7FEA6C5C4FEA430CF7
:1014A00018BF7FEA6C5C1BD001B050EA410C0CBF46
:1014B00052EA430C91EA030F02BF90EA020F0020A8
:1014C000704710F1000F91EA030F58BF994208BF0F
:1014D00090422CBFD8176FEAE37040F001007047CC
:1014E0004FEA410C7FEA6C5C02D150EA013C07D123
:1014F0004FEA430C7FEA6C5CD6D152EA033CD3D06E
:101500005DF8040B704700BF8446104662468C4667
:101510001946634600E000BF01B5FFF7B7FF00289A
:1015200048BF10F1000F01BD4DF808EDFFF7F4FFC3
:101530000CBF012000205DF808FB00BF4DF808ED4E
:10154000FFF7EAFF34BF012000205DF808FB00BF71
:101550004DF808EDFFF7E0FF94BF012000205DF893
:1015600008FB00BF4DF808EDFFF7CEFF94BF012048
:1015700000205DF808FB00BF4DF808EDFFF7C4FF41
:1015800034BF012000205DF808FB00BF4FEA410C8A
:101590007FEA6C5C02D150EA013C0AD14FEA430C6D
:1015A0007FEA6C5C02D152EA033C02D14FF00000AA
:1015B00070474FF0010070474FEA410212F50012E8
:1015C00015D211D56FF47873B3EB625212D94FEA8A
:1015D000C12343F0004343EA505311F0004F23FA74
:1015E00002F018BF404270474FF00000704750EAC9
:1015F000013005D111F0004008BF6FF00040704786
:101600004FF00000704700BF0348044B834202D0F4
:10161000034B03B1184770473816002038160020D6
:10162000000000000548064B1B1AD90F01EBA3016F
:10163000491002D0034B03B11847704738160020F9
:10164000381600200000000010B5064C237843B97E
:10165000FFF7DAFF044B13B10448AFF30080012316
:10166000237010BD381600200000000090F3000821
:1016700008B5054B1BB105490548AFF30080BDE82F
:101680000840FFF7CFBF00BF000000003C1600205D
:1016900090F3000838B5054600240AE005F25743E8
:1016A0001A5D0A4B1A702B68DB6AE1B2284698472C
:1016B00001343F2C02D82F2CF0D1F9E72B68DB6ADC
:1016C00095F886242F212846984738BDB416002067
:1016D00038B50546002405E02B685B69A1B22846B1
:1016E00098470134B4F5806FF6D338BD38B5054658
:1016F000002405E02B685B6AE1B228469847013474
:101700003F2CF7D938BD38B50546002405E02B68D5
:101710005B6BE1B22846984701341F2CF7D938BDDE
:1017200038B50546202405E02B685B6BE1B22846FE
:1017300098470134222CF7D938BD90F8B83803F017
:10174000010280F88420C3F3400280F88520C3F3AF
:10175000800280F88620C3F3001280F88720C3F34C
:10176000401280F88820DB0980F88A3090F8B93878
:1017700003F0010280F88F20C3F3400280F88E202E
:10178000C3F3800280F88D20C3F3C00380F88C304F
:1017900090F8BA3803F0010280F89120C3F34002B8
:1017A00080F89220C3F3800280F89320C3F3C00234
:1017B00080F89420C3F3001280F89520C3F3401200
:1017C00080F89620C3F3801380F8903070470000B3
:1017D000F8B50646002506E0052D2FDC06F164036A
:1017E00043F825000135072D2EDC06F6980353F843
:1017F0002540164A146024F07840154A1060E40E23
:10180000144B1C60FFF702F84FF04851FEF7D8FC6C
:101810001149FEF7D5FC07462046FEF7F7FF39468B
:10182000FEF744FF0D4B1860737A002BD6D1737E00
:10183000002BD1D1B37E002BD0D0CDE706F16403CD
:10184000EA1E43F82200CDE7F8BD00BF7016002065
:101850006C16002064160020F8FF7F3F68160020F9
:1018600038B50546002400E00134B4F5806F09D294
:1018700040F2EF339C42F7D02B68DB69A1B22846D7
:101880009847F1E72B68DB6940F2EF31284698472B
:1018900038BD000008B590F8C93861F3050380F839
:1018A000C93880F8C8283D2905D803689B68D0F856
:1018B000C818984708BDA1F13E03DBB2012B03D93C
:1018C000034806F04DF8F5E7024806F049F8F1E75D
:1018D000E0F30008A8F3000810B5B1F5806F54D20A
:1018E000044680F8C518C1F3012190F8C63823F0EA
:1018F00003030B4380F8C638002380F8C43803681C
:101900009B68D0F8C4189847024684F8C408D4F8F5
:10191000C418C1F309211F4806F022F8D4F8C438CE
:10192000C3F30923B3F5307F05D294F8C4282344C8
:1019300083F8972410BD03F5A072C2F309027F2A31
:1019400007D8A3F5307394F8C428234483F85727A5
:10195000F0E703F1C002C2F309027F2A07D8A3F51A
:10196000507394F8C428234483F8D727E2E7B3F5EB
:10197000707FDFD3A3F5707304F65702D0180649C1
:10198000086094F8C418D154D4E7044805F0E8FF7F
:10199000D0E700BF0CF400088816002028F40008E7
:1019A00010B53F2925D8044690F8CD3861F30503DA
:1019B00080F8CD38002380F8CC3803689B68D0F8D5
:1019C000CC189847024684F8CC0894F8CD1801F05A
:1019D0003F010A4805F0C4FF04F6570294F8CD38D9
:1019E00003F03F03D0180649086094F8CC18D1548E
:1019F00010BD044805F0B4FFFAE700BF58F4000832
:101A0000841600207CF4000810B58A08264B1A7052
:101A100001F00302254B1A60222940D8044690F8B1
:101A2000D13861F3050380F8D138002380F8D0382D
:101A300003685B68B0F8D018984784F8D0081A4B50
:101A40001A78072A19D894F8D13813F0030F02D165
:101A5000174B0021196004F6980404EB8201154B22
:101A60001960124B1B68DB0000FA03F31049086889
:101A700003430B6044F8223010BD082AFCD10B4B05
:101A80001B6813B984F8B808F6E7012B04D0022BC1
:101A9000F2D184F8BA08EFE784F8B908ECE7064811
:101AA00005F05EFFE8E700BF781600207C160020F6
:101AB0007416002080160020A8F4000810B5B1F5B7
:101AC000806F4FD2C1F3090380F8C118C1F301211F
:101AD00090F8C22822F003020A4380F8C2280022AC
:101AE00080F8C028B3F5307F0CD2204A136003443D
:101AF00093F8973080F8C03803689B68D0F8C01816
:101B0000984710BD03F5A072C2F309027F2A09D8D5
:101B1000A3F53073154A1360034493F8573380F8E4
:101B2000C038E9E703F1C002C2F309027F2A09D8ED
:101B3000A3F550730D4A1360034493F8D73380F82C
:101B4000C038D9E7B3F5707FD6D3A3F57073074AD1
:101B5000136000F25742D41805490C60D35C80F83A
:101B6000C038C9E7034805F0FBFECAE7601600204D
:101B70005C160020D8F40008F0B585B00446C1F327
:101B80000742C1F307238DF80C208DF80D308DF836
:101B90000E1011F4000F17D1134E4FF6FF77009778
:101BA000022303AA8179304602F03EF90F4D0097D7
:101BB00001232A46A179304602F0F2F9012001F012
:101BC0002FFC287805B0F0BD4FF6FF730093032378
:101BD00003AA8179044802F027F9012001F020FCD2
:101BE000024B1878EEE700BFC0220020B716002095
:101BF00000B585B0C1F30742C1F307238DF80C206F
:101C00008DF80D308DF80E1081794FF6FF7300932B
:101C1000032303AA044802F007F9012001F000FCA5
:101C2000002005B05DF804FBC022002030B585B06F
:101C300004460B0A8DF80C308DF80D103F2B18D987
:101C40004FF6FF730093012303AA81790E4802F037
:101C5000EBF80E4D4FF6FF73009301232A46A1794E
:101C6000094802F09DF9012001F0DAFB287805B05F
:101C700030BD4FF6FF730093022303AA8179024817
:101C800002F0D2F8E5E700BFC0220020B61600201F
:101C900030B585B004468DF80F104FF6FF730093F2
:101CA00001230DF10F0281790C4802F0BDF89DF976
:101CB0000F30002B0FDB0A4D4FF6FF73009301230B
:101CC0002A46A179054802F06BF9012001F0A8FB32
:101CD000287805B030BD024B1878FAE7C022002002
:101CE000B516002038B50446054655F8973B1B69E4
:101CF0009847164B1D6004F29744154B1C60002456
:101D00000FE02146134805F02BFE642001F088FB0C
:101D10000E4A1368013313600D4A136801331360D0
:101D20000134B4F5806F0FD2084B1B681A78084B4A
:101D30001B681B789A42E4D02146064805F010FE45
:101D4000642001F06DFBE3E738BD00BF58160020AA
:101D50005416002008F500080022027042708270BC
:101D6000C270027142718271C271027242728272D9
:101D7000C272027342738273C273027442748274B9
:101D8000C274027542758275C27502764276827699
:101D9000C276027742778277C27780F8202080F877
:101DA000212080F8222080F8232080F8242080F849
:101DB000252080F8262080F8272080F8282080F829
:101DC000292080F82A2080F82B2080F82C2080F809
:101DD0002D2080F82E2080F82F2080F8302080F8E9
:101DE000312080F8322080F8332080F8342080F8C9
:101DF000352080F8362080F8372080F8382080F8A9
:101E0000392080F83A2080F83B2080F83C2080F888
:101E10003D2080F83E2080F83F2070472DE9F041BA
:101E20000446884617461E464D4B03600025057143
:101E300045718571C57100F25740FFF78DFF04F6BB
:101E40005700FFF789FFC4F89858C4F89C58C4F8A5
:101E5000A058C4F8A458C4F8A858C4F8AC58C4F89A
:101E6000B058C4F8B45884F8B85884F8B95884F80D
:101E7000BA58012284F8BC2894F8BD3865F30003F1
:101E800084F8BD38DBB265F3420384F8BD38DBB2B9
:101E90000A2161F3C70384F8BD38C4F8C05894F828
:101EA000C238282161F3870384F8C238C4F8C458C3
:101EB00094F8C638082161F3870384F8C638C4F85B
:101EC000C85894F8C93863F03F0384F8C9386FF0F4
:101ED0005C0384F8CA38C4F8CC5894F8CD3863F061
:101EE0003F0384F8CD38232384F8CE3884F8D058C3
:101EF00094F8D13865F3050384F8D138DBB262F386
:101F0000871384F8D138882384F8D2388A2384F858
:101F1000D3388C2384F8D4388E2384F8D5388D2395
:101F200084F8D638962384F8D738992384F8D8389B
:101F30009C2384F8D938112384F8DA387E2384F876
:101F4000DB3884F8BC5894F8BD3866F3420384F853
:101F5000BD38A67184F8088067722046BDE8F0811C
:101F600068F8000810B584B0044600238DF80F30DF
:101F7000817949081E4805F0F3FCB4F8DA381B0AE9
:101F80008DF80E304FF6FF73009301230DF10E0212
:101F9000A179184801F048FFC0B19DF80F10112930
:101FA0001FD0154805F0DCFC9DF80F10134805F014
:101FB000D7FC134805F0D4FC124B00221A701248CB
:101FC00005F0CEFC0F4B187804B010BD4FF6FF7330
:101FD000009301230DF10F02A179064801F0E0FF03
:101FE000DBE70A4805F0BCFC064B01221A70E6E765
:101FF00054F50008C0220020A0F50008BCF5000838
:10200000C4F50008B8160020D8F500087CF50008D3
:1020100008B58839142944D8DFE801F00B4312438E
:10202000192720434343434343432E43433543430C
:102030003C0003681B6890F8D2189847012031E0F3
:1020400003681B6890F8D318984701202AE00368BA
:102050001B6890F8D4189847012023E003681B6898
:1020600090F8D518984701201CE003681B6890F889
:10207000D6189847012015E003681B6890F8D71818
:10208000984701200EE003681B6890F8D81898471D
:10209000012007E003681B6890F8D91898470120D1
:1020A00000E0002008BD000010B50446074805F018
:1020B00057FC074805F054FC23689B692046984765
:1020C000044805F04DFC0123E37110BD24F4000821
:1020D000ECF5000808F600082DE9F0410546037A02
:1020E000002B4ED1437AB3B9784B794A9A6040F2CB
:1020F000F9225A6000221A80764B77499960402174
:1021000059604FF470711980744B9A605A604FF4A3
:1021100048721A8037E0012B1AD0022B33D16B4B57
:102120006F4A9A604FF432725A6000221A80694BEB
:102130006C4A9A6040225A604FF470721A80674B62
:10214000694A9A609B225A604FF448721A801AE0DA
:102150005E4B634A9A604FF432725A6000221A80D2
:102160005C4B624A9A6040225A604FF470721A8047
:102170005A4B5F4A9A609B225A604FF448721A8009
:1021800001E0012B2CD0554B1C88A4F53074A4B26F
:10219000584B1C80C4F55076B6B2574B1E804B4B43
:1021A0005F68B7F5307F6AD83A46996805F19700BD
:1021B000FEF7E6FD494B5F684FB1B74272D804F5B0
:1021C000547028443A4699680730FEF7D9FD414BD0
:1021D0005A68996805F25740FEF7D2FDBDE8F081D4
:1021E000437AB3B9394B454A9A604FF40D725A603D
:1021F00000221A80374B42499960402159604FF4C0
:1022000070711980354B9A605A604FF448721A8089
:10221000B9E7012B1AD0022BB5D12C4B394A9A6061
:102220004FF429725A6000221A802A4B364A9A606B
:1022300040225A604FF470721A80284B334A9A60D9
:102240009B225A604FF448721A809CE71F4B2D4A1C
:102250009A604FF429725A6000221A801D4B2C4A52
:102260009A6040225A604FF470721A801B4B294AC0
:102270009A609B225A604FF448721A8083E7134B8E
:10228000D3F808804FF43072414605F19700FEF70D
:1022900077FDA7F5307208F5307105F25730FEF77B
:1022A0006FFD87E704F554742C440C4BD3F8088079
:1022B00032464146E01DFEF763FDBA1B08EB0601FE
:1022C00005F2D730FEF75CFD81E700BFA8160020BD
:1022D000900B002090160020400100209C1600204A
:1022E000C8080020C000002080010020000100205C
:1022F0001C0200208E1600208C1600209406002060
:1023000080000020F003002000000020B802002020
:10231000400000205403002038B504460D465822E2
:102320000C30FEF72DFD2B789B0994F8572463F3AE
:10233000871284F857242A7894F8573462F30103FB
:1023400084F857342B78C3F3830394F8572463F34A
:10235000850284F85724EA7894F8583462F3C71356
:1023600084F85834AA78DBB262F3451384F8583401
:102370006A78DBB262F3020384F85834AA7994F8DD
:10238000593462F3051384F85934AB79C3F38103EC
:1023900094F8592463F3871284F859246A7994F8DD
:1023A000593462F3C30384F859342A79DBB262F3F7
:1023B000410384F859342A7B94F85A3462F3861323
:1023C00084F85A34EA7ADBB262F3451384F85A345B
:1023D000AA7ADBB262F3C40384F85A346A7ADBB2B5
:1023E00062F3820384F85A342A7ADBB262F341033F
:1023F00084F85A34EA79DBB262F3000384F85A3481
:102400006A7C94F85B3462F3C71384F85B342A7CEB
:10241000DBB262F3451384F85B34EA7BDBB262F330
:10242000041384F85B34AA7BDBB262F3410384F8C3
:102430005B346A7BDBB262F3000384F85B34EA7DD1
:1024400094F85C3462F3C71384F85C34AA7DDBB281
:1024500062F3451384F85C346A7DDBB262F3C30334
:1024600084F85C342A7DDBB262F3820384F85C3446
:10247000EA7CDBB262F3410384F85C34AA7CDBB211
:1024800062F3000384F85C342A7E94F85D3462F3CE
:10249000050384F85D346B8B84F85E346B8BC3F377
:1024A000042394F85F2463F3040284F85F24EB6947
:1024B00084F86034EB69C3F30E2384F86134EB696C
:1024C000C3F3064394F8622463F3060284F862249B
:1024D0002B8C84F863342B8CC3F3012394F864248D
:1024E00063F3010284F8642495F82130C3F34113A7
:1024F000D2B263F3871284F8642495F82130C3F3D1
:102500008203D2B263F3840284F864246B8C84F86F
:1025100065346B8CC3F3012394F8662463F30102E2
:1025200084F8662495F82330C3F38303D2B263F3AF
:10253000850284F86624AB8C84F86734AB8CC3F3D3
:10254000012394F8682463F3010284F8682495F861
:102550002530C3F38403D2B263F3860284F868247F
:1025600095F8282094F8693462F3C71384F8693425
:1025700095F82720DBB262F3861384F8693495F866
:102580002620DBB262F3050384F8693495F829301C
:102590009B0994F86A2463F3871284F86A2495F8F7
:1025A0002930C3F30113D2B263F3051284F86A240D
:1025B00095F8292094F86A3462F3030384F86A34A6
:1025C00095F82B2094F86B3462F3C71384F86B34BE
:1025D00095F82A20DBB262F3020384F86B34AB8DEA
:1025E00084F86C34AB8DC3F3012394F86D2463F34A
:1025F000010284F86D2495F82D30C3F30213D2B292
:1026000063F3061284F86D2495F82D30C3F381032B
:10261000D2B263F3830284F86D2495F8322094F8E3
:102620006E3462F3871384F86E3495F83120DBB290
:1026300062F3451384F86E3495F83020DBB262F310
:10264000041384F86E3495F82F20DBB262F3820312
:1026500084F86E3495F82E20DBB262F3010384F81F
:102660006E3495F83530C3F3810394F8722463F324
:10267000871284F8722495F8352094F8723462F346
:10268000830384F8723495F83320DBB262F30003DD
:1026900084F8723495F83420DBB262F3410384F895
:1026A000723495F8363084F8733495F837301B0956
:1026B00094F8742463F3071284F8742495F837208F
:1026C00094F8743462F3030384F8743495F83A2070
:1026D00094F8753462F3C71384F8753495F839208B
:1026E000DBB262F3861384F8753495F83820DBB2D8
:1026F00062F3020384F8753495F83F2094F8763439
:1027000062F3C71384F8763495F83E20DBB262F3A7
:10271000861384F8763495F83D20DBB262F3051316
:1027200084F8763495F83C20DBB262F3C30384F876
:10273000763495F83B20DBB262F3020384F87634FA
:1027400095F84030C3F3011394F8772463F305122E
:1027500084F8772495F84030C3F3C003D2B263F312
:10276000C30284F8772495F8402094F8773462F314
:10277000020384F8773495F841301B0994F87824E3
:1027800063F3071284F8782495F8412094F878349C
:1027900062F3030384F8783495F8452094F879348B
:1027A00062F3C71384F8793495F84420DBB262F3FE
:1027B000861384F8793495F84320DBB262F345132D
:1027C00084F8793495F84220DBB262F3041384F87C
:1027D000793495F8463084F87A3495F8473084F89F
:1027E0007D3495F8482094F87E3462F3030384F82E
:1027F0007E3495F848301B0994F87E2463F3071261
:1028000084F87E2495F8493084F87F3495F84A306E
:1028100084F8803495F8502094F8813462F386135C
:1028200084F8813495F84F20DBB262F3041384F806
:10283000813495F84E20DBB262F3C30384F881340F
:1028400095F84D20DBB262F3820384F8813495F869
:102850004C20DBB262F3410384F8813495F84B20BD
:10286000DBB262F3000384F8813495F8512094F8C8
:10287000863462F3000384F8863495F8522094F885
:10288000873462F3030384F88734B5F8543084F84E
:102890008834B5F854301B0A84F8893495F85630DA
:1028A00084F88D3423689B6A2046984738BD10B55C
:1028B000044691F857344FEA931C0A7B6CF3871255
:1028C0000A73D2B263F301020A73C3F38303D2B271
:1028D00063F385020A7391F85834DA09CA73C3F3B3
:1028E00040128A734A7B63F302024A7391F85934A7
:1028F000C3F3011C8A7C6CF301028A744FEA931CB7
:10290000D2B26CF383028A74C3F3C0024A74C3F375
:1029100040030B7491F85A34C3F380120A76C3F360
:102920004012CA75C3F3C10C8A7D6CF301028A752B
:10293000C3F380024A75C3F340020A7503F0010332
:10294000CB7491F85B34DA094A77C3F340120A7703
:10295000C3F30012CA76C3F340028A7603F0010380
:102960004B7691F85C34DA0981F82320C3F34012E6
:1029700081F82220C3F3C00281F82120C3F3800232
:1029800081F82020C3F34002CA7703F001038B775C
:1029900091F85D2491F8243062F3050381F8243026
:1029A00091F85F2402F01F0291F85E3443EA02239B
:1029B000CA8C63F30C02CA8491F8622402F07F028D
:1029C00091F861341B0243EA024391F860241343F7
:1029D0008A6A63F316028A6291F8643403F0030C86
:1029E00091F8632442EA0C22B1F82CC062F3090C7E
:1029F000A1F82CC04FEA931C91F82D206CF34612DD
:102A000081F82D20C3F38203D2B263F3840281F8EC
:102A10002D2091F8663403F0030C91F8652442EA06
:102A20000C22B1F82EC062F3090CA1F82EC0C3F33A
:102A3000830391F82F2063F3850281F82F2091F80A
:102A4000683403F0030C91F8672442EA0C22B1F8D1
:102A500030C062F3090CA1F830C0C3F3840391F8CD
:102A6000312063F3860281F8312091F86934DA0964
:102A700081F83420C3F3801281F8332091F832209A
:102A800063F3050281F8322091F86A344FEA931C0F
:102A900091F835206CF3871281F83520C3F3011CBF
:102AA000D2B26CF3051281F83520D2B263F303027F
:102AB00081F8352091F86B24D30981F8373091F8EB
:102AC000363062F3020381F8363091F86D3403F04A
:102AD000030C91F86C2442EA0C22B1F838C062F37E
:102AE000090CA1F838C0C3F3021C91F839206CF32B
:102AF000061281F83920C3F38103D2B263F3830253
:102B000081F8392091F86E344FEA931C91F83E20F9
:102B10006CF3010281F83E20C3F3401281F83D209E
:102B2000C3F3001281F83C20C3F3800281F83B20FC
:102B300091F83A2063F3010281F83A2091F8723457
:102B40004FEA931C91F841206CF3830281F84120F5
:102B5000C3F3810CD2B26CF3010281F8412003F07F
:102B6000010281F83F20C3F3400381F8403091F81F
:102B7000733481F8423091F874244FEA121C91F8B2
:102B800043306CF3071381F84330DBB262F3030385
:102B900081F8433091F87534DA0981F84620C3F39F
:102BA000801281F8452091F8442063F3020281F8F5
:102BB000442091F87634DA0981F84B20C3F380126F
:102BC00081F84A20C3F3011C91F849206CF30102FB
:102BD00081F84920C3F3C00281F8482091F84720CA
:102BE00063F3020281F8472091F87734C3F3011CA4
:102BF00091F84C206CF3051281F84C20C3F3C00C03
:102C0000D2B26CF3C30281F84C20D2B263F3020259
:102C100081F84C2091F878244FEA121C91F84D303D
:102C20006CF3071381F84D30DBB262F3030381F8D4
:102C30004D3091F87934DA0981F85120C3F38012CC
:102C400081F85020C3F3401281F84F20C3F30013E2
:102C500081F84E3091F87A3481F8523091F87D3411
:102C600081F8533091F87E3491F8542063F30302D5
:102C700081F854201B09D2B263F3071281F8542063
:102C800091F87F3481F8553091F8803481F85630CE
:102C900091F88134C3F3801281F85C20C3F30012F1
:102CA00081F85B20C3F3C00281F85A20C3F380028D
:102CB00081F85920C3F3400281F8582003F0010342
:102CC00081F8573091F8863403F0010381F85D30C4
:102CD00091F8872491F85E3062F3030381F85E3047
:102CE00091F8892491F8883443EA0223A1F86030EE
:102CF00091F88D3481F8623058220C31FEF740F89B
:102D0000204610BD10B5044603681B6B9847236826
:102D10009B6B2046984704F1640010BD38B504460B
:102D20000D460368DB6B984723681B6C2046984769
:102D300015B904F1840038BD94F8BA3894F8B9286C
:102D400094F8B818014804F00BFEF2E724F60008E6
:102D500070B588B0002403940494059406940794F5
:102D60000094214B1A6B42F080021A631A6B02F036
:102D700080020092009A01941A6B42F001021A63D9
:102D80001A6B02F001020192019A02941A6B42F04E
:102D900002021A631B6B03F002030293029B134EA1
:102DA00022462021304600F023FD202303930125F5
:102DB00004950594069403A9304600F031FC1023D5
:102DC00003934FF488130493059503A9084800F072
:102DD00027FC224621460A2000F08EFB0A2000F044
:102DE0009BFB08B070BD00BF0038024000000240ED
:102DF0000004024000B597B0582206496846FDF726
:102E0000BFFF5023002201210348FFF707F817B046
:102E10005DF804FB981F0020BC160020102800D08D
:102E20007047044B01221A70034A13780133137060
:102E3000F6E700BF7922002078220020704772B6A2
:102E4000FEE7000008B50A480A4B03600A4B4360DE
:102E500000238360C3604FF4804202614361836159
:102E6000C361036200F002FF00B908BDFFF7E7FF8E
:102E7000C022002000540040A086010008B50A4886
:102E80000A4B03604FF4E133436000238360C36067
:102E900003610C2242618361C36102F06BFC00B9E3
:102EA00008BDFFF7CCFF00BF7C22002000100140CE
:102EB00000B595B03022002108A806F0E1FC0023FF
:102EC0000393049305930693079301931F4A116C90
:102ED00041F080511164126C02F080520192019A0B
:102EE00002931B4B1A6842F440421A601B6803F4B9
:102EF00040430293029B012308934FF480330993CC
:102F000002230E934FF480020F9219221092C022D6
:102F1000119212930423139308A802F01FF888B9A2
:102F20000F23039302230493002305934FF480534C
:102F300006930793032103A802F060FA20B915B0A5
:102F40005DF804FBFFF77BFFFFF779FF00380240D5
:102F50000070004008B500F037FAFFF7A9FFFFF74F
:102F6000F7FEFFF76FFFFFF789FF04F08BFC4FF4CC
:102F70007A7000F055FA104B1A781049104800F09A
:102F80005FF80A2000F04CFA0E4B1B78002BF8D0AB
:102F900020210D4800F032FC0A2000F0CBFA00217D
:102FA000084B1970064800F069F800F097F80A20FD
:102FB00000F0B2FAE5E700BF8A0E0020981F00205B
:102FC000BC160020792200200000024008B5FFF75F
:102FD00011FF08BD30B597B005460C46014668465E
:102FE000FFF765FC582269462046FDF7C9FE01231C
:102FF0006374E373227E362161F305022276E2696F
:103000004FF4FA7161F31602E26194F8212022F084
:103010001C0284F8212094F8252063F3860284F8AA
:103020002520002284F8272094F8263062F3050337
:1030300084F8263021462846FFF76EF917B030BDD8
:1030400038B504460D468821FEF7E2FF8A21204666
:10305000FEF7DEFF2046FEF785FF2046FFF73CF82F
:103060002046FFF721F8002229462046FFF7B2FF4D
:103070008C212046FEF7CCFF38BD000070B5044619
:103080000D460021FFF74AFE104E306000232371E9
:103090002046FFF737FE0E4B18603368DB7A83B9A2
:1030A00042680C4BD82101FB05335A6282689A644E
:1030B000C268DA660269C3F890204269C3F8B42096
:1030C00070BD691C044804F04BFCF9E71423002090
:1030D00018230020F01F002030F6000808B5054B2B
:1030E000586AFDF785FA02460B46034804F038FC9F
:1030F00008BD00BFF01F002050F6000882B000217C
:1031000000910B4B5A6C42F480425A645A6C02F4A0
:1031100080420092009A01911A6C42F080521A6427
:103120001B6C03F080530193019B02B0704700BFFA
:103130000038024030B589B000230393049305930F
:10314000069307930268144B9A4201D009B030BD30
:1031500000250195114C236B43F002032363236B7D
:1031600003F002030193019BC023039312230493F2
:10317000032306930423079303A9094800F050FA98
:103180000295236C43F400132364236C03F40013AF
:103190000293029BDAE700BF00540040003802406F
:1031A0000004024010B588B00023039304930593F4
:1031B00006930793026803F1804303F588339A422C
:1031C00001D008B010BD0024019403F594335A6C6B
:1031D00042F010025A645A6C02F010020192019AF5
:1031E00002941A6B42F001021A631B6B03F0010395
:1031F0000293029B4FF4C0630393022304930323BF
:1032000006930723079303A9054800F009FA22460D
:103210002146252000F070F9252000F07DF9D0E747
:1032200000000240FEE7FEE7FEE7FEE7FEE770472C
:103230007047704708B500F0E1F808BD08B51020E8
:1032400000F0E6FA08BD000008B5024802F04AFBAB
:1032500008BD00BF7C22002008B5024801F070FBC9
:1032600008BD00BF243A00200120704708B506F0D1
:1032700003FC162303604FF0FF3008BD08B54FF084
:10328000FF31FFF7F3FFFEE770B50C461646002549
:1032900006E0AFF30080214601F8010B01350C4632
:1032A000B542F6DB304670BD70B50C4616460025BB
:1032B00004E014F8010BAFF300800135B542F8DBF0
:1032C000304670BD4FF0FF3070474FF400534B60F5
:1032D00000207047012070470020704710B503465A
:1032E0000C4A0D490D48006840B10C480068034481
:1032F000521A934206D8094A136010BD0748084C79
:103300000460F2E706F0B8FB0C2303604FF0FF30D7
:10331000F3E700BF00000220000400001C2300208F
:103320004842002070470000DFF834D00D480E49B5
:103330000E4A002302E0D458C4500433C4188C420F
:10334000F9D30B4A0B4C002301E013600432A24274
:10335000FBD3FFF7E7FF06F095FBFFF7FBFD704798
:10336000000002200000002038160020CCFD0008DC
:103370003816002044420020FEE7000010B5044645
:103380000E4B1A784FF47A73B3FBF2F30C4A1068C1
:10339000B0FBF3F000F0D2F868B90F2C01D901208E
:1033A0000AE0002221464FF0FF3000F0A5F8054B5F
:1033B0001C60002000E0012010BD00BF900E002026
:1033C0008C0E0020940E002008B50B4B1A6842F4B6
:1033D00000721A601A6842F480621A601A6842F435
:1033E00080721A60032000F075F80F20FFF7C6FF07
:1033F000FFF784FE002008BD003C0240034A11682C
:10340000034B1B780B441360704700BF2023002040
:10341000900E0020014B1868704700BF2023002049
:1034200038B50446FFF7F6FF0546B4F1FF3F02D07A
:10343000044B1B781C44FFF7EDFF401BA042FAD35E
:1034400038BD00BF900E002000280CDB00F01F02EA
:103450004009012393402030034A42F82030BFF353
:103460004F8FBFF36F8F704700E100E0002808DB4B
:103470000901C9B200F1604000F5614080F8001315
:10348000704700F00F000901C9B2014B1954704791
:1034900014ED00E000B500F00700C0F1070CBCF12E
:1034A000040F28BF4FF0040C031D062B0FD9C31EB9
:1034B0004FF0FF3E0EFA0CF021EA000199400EFA9F
:1034C00003FE22EA0E0241EA02005DF804FB00233B
:1034D000EEE70000074AD36823F4E0631B041B0CEB
:1034E000000200F4E060034343F0BF6343F40033A1
:1034F000D360704700ED00E010B50446054BD86876
:10350000C0F30220FFF7C6FF01462046FFF7AEFFDB
:1035100010BD00BF00ED00E0002807DB00F01F0237
:10352000400901239340024A42F82030704700BF0F
:1035300000E100E008B5FFF787FF08BD0138B0F1F2
:10354000807F0BD24FF0E0235861054AF02182F8CA
:1035500023100020986107221A61704701207047EC
:1035600000ED00E070B50446866DFFF753FF94F858
:103570003530DBB2022B06D080236365002384F84C
:103580003430012070BD05462268136823F016030D
:1035900013602268536923F080035361236CE3B105
:1035A0002268136823F0080313602268136823F06D
:1035B0000103136023681B6813F0010F11D0FFF79C
:1035C00029FF431B052BF5D920236365032084F8CD
:1035D0003500002384F83430D4E7A36C002BDFD10E
:1035E000E3E7E26D3F239340B360012384F8353075
:1035F000002084F83400C5E790F83530DBB2022BA8
:1036000003D08023436501207047052380F83530BF
:103610000268136823F00103136000207047000064
:1036200000230F2B00F2DA8030B583B068E08568A4
:103630004FEA430E032404FA0EF425EA0405CC688D
:1036400004FA0EF42C438460446824EA02044A68B5
:10365000C2F300129A40224342605FE0DC08083463
:1036600050F8242003F00705AD004FF00F0E0EFABE
:1036700005FE22EA0E0E0A69AA4042EA0E0240F84E
:1036800024205FE0042200E0002202FA0EF22A4326
:103690000234534D45F82420524A94686FEA0C02D4
:1036A00024EA0C05D1F804E01EF4801F01D04CEA96
:1036B00004054C4CA560E46802EA0405D1F804E076
:1036C0001EF4001F01D04CEA0405464CE560646816
:1036D00002EA0405D1F804E01EF4003F01D04CEAF0
:1036E0000405404C6560246822404D6815F4803F15
:1036F00001D04CEA04023B4C226001330F2B6BD803
:1037000001229A400C6804EA020C32EA0404F4D163
:103710004C6804F00304013C012C88D94A6802F08B
:103720000302032A09D0C4685D000322AA4024EAE8
:1037300002048A68AA402243C2604A6802F0030277
:10374000022A8BD004684FEA430E032202FA0EF2DB
:1037500024EA02044A6802F0030202FA0EF222434B
:1037600002604A6812F4403FC7D0002201921E4A0C
:10377000546C44F480445464526C02F480420192CC
:10378000019A9C08A51C164A52F8255003F0030E16
:103790004FEA8E0E0F2202FA0EF225EA0205134AB4
:1037A00090423FF471AF02F5806290420ED002F574
:1037B000806290420CD002F5806290420AD002F5FD
:1037C000806290423FF45EAF07225EE701225CE731
:1037D00002225AE7032258E703B030BD704700BF0A
:1037E00000380140003C0140003802400000024027
:1037F0000AB181617047090481617047436901EA38
:10380000030221EA030141EA02418161704700009D
:1038100008B5054B5B69034200D108BD024B5861F6
:10382000FFF7FCFAF9E700BF003C014003685A6962
:1038300012F4806F01D1002070476FF480625A61EA
:1038400000230363202280F83D2080F83E30026C84
:1038500042F00402026480F83C30012070472DE9F8
:10386000F04107460D4690461E4624E0FFF7D2FD84
:10387000069BC01AB04200D8EEB900233B63202259
:1038800087F83D2087F83E303A6C42F020023A64D7
:1038900087F83C3001201EE03B689C6925EA040C57
:1038A0001FFA8CFCBCFA8CFC4FEA5C1CE04511D181
:1038B000B6F1FF3FDAD1C5F30743012BECD13B68EA
:1038C0005B6925EA030C1FFA8CFCBCFA8CFC4FEAFE
:1038D0005C1CEBE70020BDE8F0812DE9F0410546D6
:1038E0000E46174698463DE01A6842F400721A6088
:1038F0002B686FF480625A6100232B63202285F8C5
:103900003D2085F83E302A6C42F004022A6485F896
:103910003C30012034E0FFF77DFDA0EB0800B84209
:1039200000D8FFB900232B63202285F83D2085F8BD
:103930003E302A6C42F020022A6485F83C30012097
:103940001EE02B689C6926EA0404A4B2003C18BF60
:103950000124A4B12B685A6912F4806FC4D1B7F165
:10396000FF3FD8D1C6F30743012BEAD12B685C692E
:1039700026EA0404A4B2003C18BF0124E9E70020B1
:10398000BDE8F081F0B583B004460D4616461F46EB
:10399000C36A082B0DD0012B0BD013F5803F08D044
:1039A000036B122B0AD10268136843F4807313600F
:1039B00004E02268136843F4807313600097334671
:1039C00000224FF001112046FFF749FF80B923691B
:1039D000B3F5804F16D1236805F0FE051D613B4607
:1039E000324613492046FFF778FFF8B903B0F0BD1F
:1039F00023681B6813F4807F02D04FF400732364A4
:103A00000320F3E7EB11226803F0060343F0F00311
:103A100013613B46324607492046FFF75EFF18B95F
:103A20002368EDB21D61DAE70120DFE70120DDE761
:103A300002000100080001002DE9F04184B00446B5
:103A40000D4616461F46C26A01680B6843F4806340
:103A50000B60082A0DD0012A0BD012F5803F08D048
:103A6000036B112B0AD10268136843F4807313604F
:103A700004E02268136843F48073136000973346B0
:103A800000224FF001112046FFF7E9FE98B92369A3
:103A9000B3F5804F19D1236845F00105EDB21D61E2
:103AA0003B4632462A492046FFF717FF00284CD1F3
:103AB00004B0BDE8F08123681B6813F4807F02D056
:103AC0004FF4007323640320F2E74FEAE51808F08F
:103AD0000608236848F0F0021A613B4632461D4949
:103AE0002046FFF7FAFE08B10120E1E72368EDB2B6
:103AF0001D613B46324616492046FFF7EEFE08B1EF
:103B00000120D5E70022039223685969039199693E
:103B100003910399196841F4807119600097334645
:103B20004FF001112046FFF79AFE20B9226848F0B5
:103B3000F1031361B4E723681B6813F4807F02D09C
:103B40004FF4007323640320B2E70120B0E700BF05
:103B5000020001000800010070B504460D4616463B
:103B600023685B6913F0800F1CD12046FFF75EFECF
:103B7000D0B9B5F1FF3FF3D0FFF74CFC801BA84252
:103B800001D8002DECD100232363202284F83D20AE
:103B900084F83E30226C42F02002226484F83C30EB
:103BA000012000E0002070BD0120FCE770B5044654
:103BB0000D46164623685B6913F0040F1CD120469E
:103BC000FFF734FED0B9B5F1FF3FF3D0FFF722FC89
:103BD000801BA84201D8002DECD1002323632022B2
:103BE00084F83D2084F83E30226C42F020022264AA
:103BF00084F83C30012000E0002070BD0120FCE78B
:103C000070B505460C4616462B68596911F0400FF1
:103C100029D1596911F0100F15D1FFF7FBFB801B5B
:103C2000A04201D8002CEFD100232B63202285F87D
:103C30003D2085F83E302A6C42F020022A6485F847
:103C40003C30012070BD6FF010025A6100232B63DD
:103C5000202285F83D2085F83E302A6C2A6485F8BC
:103C60003C300120EEE70020ECE70000002800F0E7
:103C7000CC8070B5044690F83D30002B77D02423DB
:103C800084F83D302268136823F001031360226832
:103C9000136843F4004313602268136823F400435D
:103CA000136001F061FC62685A4B9A4264D85A4B27
:103CB00098428CBF00230123002B40F0A880574975
:103CC000A1FB00318B0C25686A6822F03F0242EAB2
:103CD00091426A6021680A6A22F03F0266684D4D8F
:103CE000AE424FD8013313430B622168CA6922F4F4
:103CF0004F4222F0FF026568464B9D424CD8431E5E
:103D00006D00B3FBF5F3013340F6FC70034278D04D
:103D1000C3F30B031A43CA6121680B6823F0C00385
:103D2000E269206A024313430B6021688B6823F425
:103D3000034323F0FF032269E068024313438B60CF
:103D40002168CB6823F0FF036269A0690243134333
:103D5000CB602268136843F00103136000202064E5
:103D6000202384F83D30206384F83E0070BD80F845
:103D70003C30FFF7DFF982E7294B98428CBF0023E4
:103D8000012399E74FF4967505FB03F3254DA5FB39
:103D900003539B090133A6E7A668BEB9431E05EB92
:103DA000450CB3FBFCF30133C3F30B03B3FA83F30A
:103DB0005B0943BBC6B9431E05EB4505B3FBF5F3F1
:103DC0000133C3F30B0343F40043A3E7431E05EBA6
:103DD000850C0CEB8C0CB3FBFCF30133C3F30B032E
:103DE000B3FA83F35B09E4E7431E05EB850505EBB6
:103DF0008505B3FBF5F30133C3F30B0343F44043F1
:103E000088E7042386E7012384E701207047012027
:103E1000ACE700BFA08601007F841E0083DE1B4349
:103E2000FF083D00D34D62102DE9F04385B00446F4
:103E30000F46914698460C9EFFF7ECFA054694F81B
:103E40003D00C0B2202804D00227384605B0BDE8A6
:103E5000F0830095192301224F492046FFF7FFFC0C
:103E6000002840F0928094F83C30012B00F08F80C5
:103E7000012384F83C3023681A6812F0010F03D143
:103E80001A6842F001021A602268136823F4006382
:103E90001360212384F83D30102384F83E30002342
:103EA0002364C4F82490A4F82A80638D23853B4BB7
:103EB000E3622B46324639462046FFF763FD07464C
:103EC000002866D10023039323685A6903929B69F3
:103ED0000393039B11E0236C042B01D00127B4E76B
:103EE0002268136843F400731360F7E72A463146EB
:103EF0002046FFF75BFE00282ED1238D002B36D005
:103F00002A4631462046FFF727FE0028E3D1626AA1
:103F1000236812781A61606A431C6362618D89B2FA
:103F2000013989B26185238D013B9BB223852268CB
:103F3000516911F0040FD9D0002BD7D04378136109
:103F4000636A01336362638D9BB2013B9BB26385FD
:103F5000238D013B2385C9E7236C042B01D0012766
:103F600073E72268136843F400731360F7E722686D
:103F7000136843F400731360202384F83D3000235A
:103F800084F83E3084F83C305FE702275DE7022783
:103F90005BE7012759E700BF020010000000FFFFA8
:103FA0002DE9F04387B004460F46914698460E9E91
:103FB000FFF730FA054694F83D00C0B2202804D03F
:103FC0000227384607B0BDE8F08300951923012287
:103FD00089492046FFF743FC002840F0458194F8CA
:103FE0003C30012B00F04281012384F83C302368EF
:103FF0001A6812F0010F03D11A6842F001021A6028
:104000002268136823F400631360222384F83D3090
:10401000102384F83E3000232364C4F82490A4F8CD
:104020002A80638D2385754BE3622B4632463946E1
:104030002046FFF701FD0746002840F01981238D37
:104040005BB9029323685A6902929A690292029AB2
:104050001A6842F400721A607AE0012B0FD0022B2A
:104060001FD02268136843F4806313600023059314
:1040700023685A6905929B690593059B68E022684D
:10408000136823F4806313600023039323685A6941
:1040900003929A690392039A1A6842F400721A60B2
:1040A00056E02268136823F4806313602268136863
:1040B00043F4006313600023049323685A69049255
:1040C0009B690493049B43E02A4631462046FFF750
:1040D00097FD002840F0CE8023681A69636A1A7041
:1040E000636A01336362238D013B2385638D9BB239
:1040F000013B9BB263852BE000953346002240498B
:104100002046FFF7ACFB002840F0B6802268136819
:1041100043F40073136023681A69636A1A70626A51
:10412000531C6362238D013B2385638D9BB2013B4E
:104130009BB2638523681B695370636A01336362B2
:10414000238D013B2385638D9BB2013B9BB263852D
:10415000218D00297FD0032954D80129B4D0022908
:10416000CAD000953346002225492046FFF777FB49
:10417000002840F083802268136823F48063136072
:1041800023681A69636A1A70636A01336362238D54
:10419000013B2385618D89B2013989B26185009522
:1041A0003346002216492046FFF759FB002867D105
:1041B0002268136843F40073136023681A69636A02
:1041C0001A70626A531C6362238D013B2385638DE1
:1041D0009BB2013B9BB2638523681B695370636A82
:1041E00001336362238D013B2385638D9BB2013BC9
:1041F0009BB26385ACE700BF020010000000FFFF28
:10420000040001002A4631462046FFF7F9FC002849
:1042100038D123681A69636A1A70626A531C636230
:10422000238D013B2385638D9BB2013B9BB263854C
:104230002368596911F0040F8AD01B695370636AAF
:1042400001336362238D013B2385638D9BB2013B68
:104250009BB263857CE7202384F83D30002384F8FB
:104260003E3084F83C30ACE60227AAE60227A8E6F6
:104270000127A6E60127A4E60127A2E60127A0E67A
:1042800001279EE601279CE62DE9F04383B0D0F894
:10429000008001EBC10300EB8303DA6D5B6D9A4292
:1042A00054D807460C469B1A01EBC10200EB820270
:1042B000926C9A4200D31A4602F103094FEA990917
:1042C00015E006F103094FEA990904EBC40507EB71
:1042D0008505E96C3B7C0093B3B2E2B2404602F044
:1042E00003F8EB6C3344EB64EB6D3344EB6508EBA4
:1042F000441303F510639B699BB24B4512D304EB47
:10430000C40307EB8303DA6D5B6D9A420AD24BB1AB
:104310009B1A04EBC40207EB8202966C9E42D0D338
:104320001E46CEE704EBC40307EB83077A6DFB6DF3
:104330009A420FD804F00F040122A240D8F8343872
:1043400023EA0203C8F83438002000E0012003B05B
:10435000BDE8F0830020FAE770B58AB0002800F0CD
:1043600090800546046890F8BD343BB3032385F87C
:10437000BD34E36B13F4807F01D100232B612868E7
:1043800001F0D4FC2C4654F8106BEC460FCCACE892
:104390000F000FCCACE80F0094E803008CE803009A
:1043A0002B1D0ECB304601F003FC044658B102230E
:1043B00085F8BD34012420460AB070BD80F8BC34B5
:1043C00003F080FBD2E70021286802F096F923462B
:1043D00016E003EBC30205EB8202012182F83D10D7
:1043E00082F83C30A2F84430002182F840109164F9
:1043F000D16403EBC30205EB820251650133DBB2EA
:1044000069688B42E5D316E004EBC40305EB830334
:10441000002283F87D2283F87C4283F88022C3F84F
:104420008822C3F88C2204EBC40305EB8303C3F892
:1044300094220134E4B2A142E6D82C4654F8106B21
:10444000EC460FCCACE80F000FCCACE80F0094E8C2
:1044500003008CE803002B1D0ECB304601F0C2FC9C
:10446000044620B1022385F8BD340124A3E70023CC
:1044700085F83830012385F8BD34286802F0FCF84F
:1044800099E7012497E7026890F8BC34012B19D012
:1044900010B50446012380F8BC34836A012B09D08F
:1044A000206801F03DFC206802F0D8F8002084F874
:1044B000BC0410BD8369012BF2D0936B43F48033AD
:1044C0009363EDE70220704770B504460D4600681F
:1044D000066C00EB411303F530639A6821690129EA
:1044E00011D038498E4256D03DB905EBC50304EBD7
:1044F0008303D3F89432002B5ED0E9B2204603F058
:104500002BFB002070BD12F0080F09D02E498E42FF
:10451000F7D912F4004FF4D04FF400429A60F0E75C
:1045200012F0200F02D020229A60EAE712F0280F42
:10453000E7D125498E4206D912F4004F03D04FF43B
:1045400000429A60DDE705EBC50204EB8202D2F877
:1045500098121B69C3F31203CB1AC2F89C327DB9BF
:1045600005EBC50204EB8202D2F894226AB105EB96
:10457000C50204EB8202D2F88C121944C2F88C12E4
:10458000E9B2204603F0E8FABBE704F2C442012195
:1045900002F0F2F8F4E712F4004F03D04FF40042B7
:1045A0009A60AEE712F0200F01D020229A60E9B2A3
:1045B000204603F0D1FAA4E704F2C442002102F03D
:1045C000DBF89AE70A31544F0A30544F38B50446A5
:1045D00003681D6C03EB4113D3F8081B0E4A954288
:1045E00007D903F5306311F4004F02D04FF40042B5
:1045F0009A60204603F0A8FA074B9D4202D923692E
:10460000012B01D0002038BD04F2C44201212068F2
:1046100002F0B2F8F6E700BF0A30544F90F8BC340D
:10462000012B0DD010B50446012380F8BC3480F86E
:104630003810006802F002F8002084F8BC0410BDB5
:104640000220704738B505468C4611F0800F29D1FD
:1046500001F00F0E0EEBCE04A40004F51E7404440A
:10466000211D0EEBCE0E00EB8E0E00208EF87D028B
:104670000CF00F0C81F800C0CA600B714A780AB1C7
:10468000A1F808C0022B1DD095F8BC34012B1CD01A
:10469000012385F8BC34286801F07DFC002085F8F2
:1046A000BC0438BD01F00F0000EBC00189003831B7
:1046B0002944043100EBC00005EB8000012480F8A0
:1046C0003D40D5E700234B71DEE70220E9E710B556
:1046D00004460A4611F0800F20D101F00F0000EBD4
:1046E000C0039B0003F51E732344191D00EBC0009B
:1046F00004EB8000002380F87D3202F00F020A7084
:1047000094F8BC34012B19D0012384F8BC34206800
:1047100001F08EFC002084F8BC0410BD01F00F00F5
:1047200000EBC0039B0038332344191D00EBC0008D
:1047300004EB8000012380F83D30DEE70220ECE747
:1047400010B501F00F0404EBC401890001F51E71DE
:104750000144043104EBC40C00EB8C0CCCF88C222B
:10476000CCF894320023CCF89C328CF87D328CF853
:104770007C420369012B06D064B9DAB2006801F00B
:10478000C7FC002010BD04EBC40C00EB8C0CCCF873
:104790009022F1E7DAB2006801F0BEFDF1E701F026
:1047A0000F0101EBC10100EB8100D0F89C027047C2
:1047B00010B501F00F0404EBC40189003831014445
:1047C000043104EBC40C00EB8C0CCCF84C20CCF87E
:1047D00054300023CCF85C3001238CF83D308CF849
:1047E0003C400369012B06D064B9DAB2006801F0DD
:1047F0008FFC002010BD04EBC40C00EB8C0CCCF83B
:104800005020F1E7DAB2006801F086FDF1E738B533
:1048100001F00F054268954239D804460B4611F065
:10482000800F1FD101EBC101890001F51E71014408
:10483000043103EBC30300EB8303002283F87D22E2
:1048400001238B700D7094F8BC34012B21D001230F
:1048500084F8BC34206801F096FE8DB1002084F805
:10486000BC0438BD05EBC501890038310144043171
:1048700005EBC50300EB8303012283F83D20DFE74E
:1048800004F2C442217C206801F076FFE6E70120B3
:10489000E7E70220E5E701F00F034268934231D8D1
:1048A00010B5044611F0800F1ED103EBC30189003F
:1048B00001F51E710144043103EBC30200EB8202D7
:1048C000002082F87D0200228A700B7094F8BC34BC
:1048D000012B19D0012384F8BC34206801F080FE3C
:1048E000002084F8BC0410BD03EBC30189003831FB
:1048F0000144043103EBC30200EB8202012082F881
:104900003D00E0E7012070470220ECE708B511F018
:10491000800F0CD101F00F0101EBC101890001F5FD
:104920001E7101440431006801F080FC08BD01F0F3
:104930000F0101EBC1018900383101440431F2E774
:104940002DE9F04F83B004460568284601F0D1FEFA
:1049500010B103B0BDE8F08F0646206801F09AFE62
:104960000028F6D005F50067BB68C3F30D23C4F833
:10497000FC34206801F08EFE10F0020F04D0226893
:10498000536903F002035361206801F083FE10F0C5
:10499000100F15D02268936923F010039361D5F8A6
:1049A000208008F00F0908F4F013B3F5802F4CD0E5
:1049B000B3F5402F6FD02268936943F010039361E1
:1049C000206801F067FE10F4002F76D1206801F016
:1049D00061FE10F4802F40F0E080206801F05AFE64
:1049E0000028C0F26381206801F054FE10F4006FCB
:1049F00009D0BB6813F0010F40F070812268536941
:104A000003F400635361206801F044FE10F4805FFA
:104A100040F06881206801F03DFE10F4005F40F036
:104A2000B581206801F036FE10F0080F40F0C68115
:104A3000206801F02FFE10F0800F00F0D981AB69E3
:104A400023F08003AB610126C2E147F6F07318EA58
:104A5000030FB0D04FEA181A4FEAC903019309EBCC
:104A6000C90B04EB8B0BC8F30A12DBF88C12284637
:104A700001F066FDDBF88C32CAF30A0A5344CBF826
:104A80008C32DBF89C32019A4A4404EB8202534494
:104A9000C2F89C328FE7082204F2C441284601F094
:104AA0004FFD09EBC90304EB8303D3F89C22C8F341
:104AB0000A184244C3F89C227DE7206801F0EEFD0D
:104AC0008046B14635E005EB49130122C3F8082BB7
:104AD00049462046FFF7F8FC3CE005EB4913082265
:104AE000C3F8082B49462046FFF770FD35E009EB77
:104AF000C90304EB830393F87F32012B41D005EB0C
:104B000049130222C3F8082B1AF0200F04D005EB3A
:104B100049132022C3F8082B1AF4005F05D005EBD7
:104B200049134FF40052C3F8082B09F101094FEA69
:104B30005808B8F1000F3FF449AF18F0010FF4D056
:104B40005FFA89FB5946206801F0B8FD824610F0F3
:104B5000010FB8D11AF0080FBFD11AF0100F04D00E
:104B600005EB49131022C3F8082B1AF0020FCBD023
:104B70006B6913F0800FBAD07B6843F480637B606D
:104B8000B5E709EBC90304EB8303002283F87F2216
:104B90005946204603F02EF8B1E7206801F086FD63
:104BA0008046B14625E05946204602F0E1FF1AF062
:104BB000080F04D005EB49130822C3F808291AF09E
:104BC000100F04D005EB49131022C3F808291AF07E
:104BD000400F04D005EB49134022C3F808291AF00E
:104BE000020F40D11AF0800F5BD109F101094FEAA1
:104BF0005808B8F1000F3FF4F0AE18F0010FF4D0F0
:104C00005FFA89FB5946206801F061FD824610F089
:104C1000010FCCD009F00F02012101FA02F27B6BE7
:104C200023EA02037B6305EB4913C3F808192369E0
:104C30008B42B8D109EBC90304EB8303DA6C996C9E
:104C40000A44DA64B9F1000FADD109EBC90304EBF2
:104C500083035B6D002BA6D104F2C44201212068BE
:104C600001F08AFD9FE74946284601F065F809EB07
:104C7000C90304EB830393F83F30012B05D005EB08
:104C800049130222C3F80829ACE709EBC90304EB76
:104C90008303002283F83F205946204602F0B0FFEC
:104CA000EDE749462046FFF7EFFA9EE77B6823F0E1
:104CB00001037B6094F8F434012B08D0204602F005
:104CC00093FF2268536903F0004353618BE6002190
:104CD00084F8F414204600F040F9F2E7204602F090
:104CE0006BFF8BE67B6823F001037B60102120685B
:104CF00001F022F81AE005EB46134FF67F31C3F8B6
:104D00000819D3F8002922F40012C3F80029C3F8C7
:104D1000081BD3F8002B22F40012C3F8002BD3F8A1
:104D2000002B42F00062C3F8002B01366368B342E7
:104D3000E1D8FB6943F00113FB61236BDBB1D7F8CA
:104D4000843043F00B03C7F884307B6C43F00B03D3
:104D50007B64D5F8003823F4FE63C5F8003804F20C
:104D6000C442217C206801F007FD2268536903F4E6
:104D7000805353614EE67B6943F4005343F02B03A9
:104D80007B613B6943F00B033B61E2E7206801F084
:104D9000E5FC206801F0EEF8E060266800F0DEFB3C
:104DA0000146227B304600F049FF204602F0F1FE2A
:104DB0002268536903F40053536132E6204602F03F
:104DC000E2FE2268536903F00803536130E60136BE
:104DD0006368B3420CD906EBC60304EB830393F874
:104DE0007F32012BF3D1F1B22046FFF78FFDEEE7C2
:104DF000206801F04FFC10F4801F27D1206801F0DB
:104E000049FC10F4001F5BD0012328E001366368E1
:104E1000B3421DD905EB4613D3F8002906EBC603B0
:104E200004EB830393F84030012BEFD1002AEDDA35
:104E300006EBC60304EB8303012283F83F2066F0F0
:104E40007F01C9B22046FFF761FDDFE70126DEE7FB
:104E50002268536903F480135361CFE7013362681A
:104E60009A4228D905EB4312D2F8001B03EBC30288
:104E700004EB820292F88022012AEFD10029EDDAB8
:104E800001F48031D4F8FC2402F001029142E5D112
:104E900003EBC30204EB8202012182F87F12AA69AC
:104EA00042F08002AA616A6912F0800FD6D17B6855
:104EB00043F400737B602268536903F40013536169
:104EC000206801F0E7FB10F0804F10D1206801F05E
:104ED000E1FB10F0040F3FF43CAD23685D6815F072
:104EE000040F0DD1226853682B43536031E52046EF
:104EF00002F08CFE2268536903F080435361E5E7BA
:104F0000204602F089FEEDE710B40468606A29B912
:104F100040EA0240A062002010BC70478C46A36AA1
:104F200000EB1340002308E003F1400104EB810192
:104F3000496800EB11400133DBB20CF1FF318B42C9
:104F4000F2D340EA02400CF13F0104EB81046060BF
:104F5000E1E703685962002070477047002800F0BD
:104F6000E08170B582B00446036813F0010F3BD0B6
:104F70009F4B9B6803F00C03042B2CD09C4B9B682D
:104F800003F00C03082B21D06368B3F5803F4FD0AA
:104F9000B3F5A02F52D0964B1A6822F480321A60D3
:104FA0001A6822F480221A606368002B50D0FEF742
:104FB00031FA05468E4B1B6813F4003F14D1FEF7FF
:104FC00029FA401B6428F5D90320B1E1884B5B68BE
:104FD00013F4800FD8D0864B1B6813F4003F03D026
:104FE0006368002B00F09F81236813F0020F54D0F8
:104FF0007F4B9B6813F00C0F3ED07D4B9B6803F0FA
:105000000C03082B33D0E368002B68D0794B0122C6
:105010001A60FEF7FFF90546754B1B6813F0020F87
:1050200054D1FEF7F7F9401B0228F5D903207FE1A0
:105030006F4A136843F480331360B5E76C4B1A680A
:1050400042F480221A601A6842F480321A60ABE798
:10505000FEF7E0F90546664B1B6813F4003FC3D02A
:10506000FEF7D8F9401B6428F5D9032060E1604BB6
:105070005B6813F4800FC6D15D4B1B6813F0020F01
:1050800003D0E368012B40F05081594A136823F0A4
:10509000F803216943EAC1031360236813F0080F82
:1050A00042D063696BB3534B0122C3F8802EFEF7E5
:1050B000B1F905464E4B5B6F13F0020F34D1FEF78A
:1050C000A9F9401B0228F5D9032031E1484A1368A9
:1050D00023F0F803216943EAC1031360DDE7454B80
:1050E00000221A60FEF796F90546414B1B6813F043
:1050F000020FD2D0FEF78EF9401B0228F5D903200B
:1051000016E13C4B0022C3F8802EFEF783F90546DA
:10511000374B5B6F13F0020F06D0FEF77BF9401B95
:105120000228F5D9032003E1236813F0040F77D098
:105130002F4B1B6C13F0805F33D1002301932C4B5A
:105140001A6C42F080521A641B6C03F08053019376
:10515000019B0125284B1B6813F4807F23D0A36893
:10516000012B34D0052B38D0214B1A6F22F00102CD
:105170001A671A6F22F004021A67A368002B3DD049
:10518000FEF748F906461A4B1B6F13F0020F46D183
:10519000FEF740F9801B41F288339842F3D903208F
:1051A000C6E00025D6E7144A136843F48073136001
:1051B000FEF730F90646104B1B6813F4807FCED102
:1051C000FEF728F9801B0228F5D90320B0E0084A31
:1051D000136F43F001031367CFE7054B1A6F42F0DB
:1051E00004021A671A6F42F001021A67C5E700BF8E
:1051F000003802400000474200700040FEF70AF904
:105200000646524B1B6F13F0020F08D0FEF702F94F
:10521000801B41F288339842F3D9032088E0EDB92E
:10522000A369002B00F08380484A926802F00C02C8
:10523000082A51D0022B17D0454B00221A66FEF7E0
:10524000E9F80446414B1B6813F0007F42D0FEF79B
:10525000E1F8001B0228F5D9032069E03B4A136CF2
:1052600023F080531364DBE7394B00221A66FEF704
:10527000D1F80546354B1B6813F0007F06D0FEF7CA
:10528000C9F8401B0228F5D9032051E0E369226ADE
:105290001343626A43EA8213A26A5208013A43EA5C
:1052A0000243E26A43EA0263284A5360284B012220
:1052B0001A66FEF7AFF80446244B1B6813F0007F14
:1052C00006D1FEF7A7F8001B0228F5D903202FE02E
:1052D00000202DE000202BE0012B2BD01B4B5B6826
:1052E00003F48001E269914226D103F03F02216A72
:1052F0008A4223D1616A47F6C0721A40B2EB811F1D
:105300001ED103F44031A26A5208013AB1EB024FB8
:1053100018D103F07063E26AB3EB026F14D100207E
:1053200006E001207047012002E0012000E000209B
:1053300002B070BD0120FBE70120F9E70120F7E78B
:105340000120F5E70120F3E70120F1E700380240F2
:105350000000474208B5264B9B6803F00C03042B62
:1053600041D0082B41D1224B5A6802F03F025B68C2
:1053700013F4800F12D01E4B5968C1F388111D48D9
:105380000023A1FB0001FBF799FA194B5B68C3F3FB
:10539000014301335B00B0FBF3F008BD144B5868C8
:1053A000C0F388104FEA401CBCEB000C6EEB0E0EF5
:1053B0004FEA8E1343EA9C634FEA8C11B1EB0C0168
:1053C00063EB0E03DB0043EA5173C90011EB000CE1
:1053D00043F10003990200234FEA8C2041EA9C51DB
:1053E000FBF76CFAD1E70348D7E70348D5E700BFDE
:1053F0000038024040787D010024F400002800F0CD
:105400009B8070B50D4604464F4B1B6803F00703A5
:105410008B4208D2CBB24C4A1370136803F00703D7
:105420008B4240F08B80236813F0020F17D013F0EB
:10543000040F04D0454A936843F4E0539360236813
:1054400013F0080F04D0414A936843F4604393601B
:105450003E4A936823F0F003A1680B4393602368EE
:1054600013F0010F32D06368012B21D09A1E012A5C
:1054700025D9364A126812F0020F61D033498A6882
:1054800022F0030213438B60FDF7C4FF06462F4B47
:105490009B6803F00C036268B3EB820F16D0FDF734
:1054A000B9FF801B41F288339842F0D9032042E0D3
:1054B000264A126812F4003FE0D101203BE0234A63
:1054C000126812F0007FD9D1012034E01E4B1B6816
:1054D00003F00703AB4207D9EAB21B4B1A701B68F3
:1054E00003F00703AB422DD1236813F0040F06D05D
:1054F000164A936823F4E053E1680B4393602368F2
:1055000013F0080F07D0114A936823F46043216910
:1055100043EAC1039360FFF71DFF0C4B9B68C3F385
:1055200003130B4AD35CD8400A4B18600A4B186827
:10553000FDF724FF002070BD012070470120FAE72D
:105540000120F8E70120F6E7003C02400038024065
:10555000B8F800088C0E0020940E0020014B18684B
:10556000704700BF8C0E002008B5FFF7F7FF044B13
:105570009B68C3F38223034AD35CD84008BD00BFB5
:1055800000380240B0F8000808B5FFF7E7FF044B09
:105590009B68C3F34233034AD35CD84008BD00BFC5
:1055A00000380240B0F80008026802F10C0353E82A
:1055B000003F23F490730C3242E800310029F3D10C
:1055C000026802F1140353E8003F23F00103143290
:1055D00042E800310029F3D1036B012B05D02023D1
:1055E00080F83E30002303637047026802F10C0329
:1055F00053E8003F23F010030C3242E80031002949
:10560000F3D1ECE790F83D30DBB2212B01D0022042
:1056100070478368B3F5805F17D0036A5A1C026233
:105620001A7803685A60C38C9BB2013B9BB2C38457
:105630004BB90268D36823F08003D3600268D36853
:1056400043F04003D360002070470369002BE4D18E
:10565000036A1B880268C3F308035360036A0233BA
:105660000362E0E710B504460268136923F440536F
:10567000C1680B431361836802691A4343691A4383
:10568000C3691A430168CB6823F4164323F00C0363
:105690001343CB600268536923F4407381690B4361
:1056A00053610368314A934206D002F58062934207
:1056B00002D0FFF759FF01E0FFF766FFE369B3F59A
:1056C000004F29D00021031849411B1841F1000166
:1056D000C90041EA5371DB00181863684FEA83027E
:1056E0004FEA937341F10001FBF7E8F8204AA2FB6F
:1056F00000314909642303FB11031B013233A2FB70
:1057000003235B0903F0F00202EB011203F00F0325
:10571000216813448B6010BD0023021843EB030182
:10572000121841F10001C90041EA5271D20010186B
:1057300041F10001626892185B41FBF7BFF80C4A27
:10574000A2FB00314909642303FB1103DB00323360
:10575000A2FB03235B095A0002F4F87202EB011268
:1057600003F00703216813448B60D4E70010014065
:105770001F85EB5158B310B5044690F83D300BB37C
:10578000242384F83D302268D36823F40053D36087
:105790002046FFF767FF2268136923F490431361E3
:1057A0002268536923F02A0353612268D36843F4C3
:1057B0000053D36000202064202384F83D3084F817
:1057C0003E3010BD80F83C30FDF7ECFCD8E70120FE
:1057D0007047704708B50168CA6822F04002CA6085
:1057E000202280F83D20FFF7F4FF002008BD70471D
:1057F00008B5806B0023C385C384FFF7F8FF08BD9D
:10580000704790F83E30DBB2222B67D18368B3F546
:10581000805F4DD0826AB3F5805F04D0002B54D1F5
:105820000369002B51D103685B681370836A0133ED
:105830008362C38D9BB2013B9BB2C385002B4FD1CA
:1058400000B583B00268D36823F02003D3600268F8
:10585000D36823F48073D3600268536923F0010393
:105860005361202380F83E30036B012B33D100239A
:105870000363026802F10C0353E8003F23F01003B6
:105880000C3242E800310029F3D103681A6812F0A3
:10589000100F06D0002201921A6801925B680193F2
:1058A000019B818DFFF7ACFF002003B05DF804FB86
:1058B0000269002AAED1826A03685B68C3F30803F9
:1058C0001380836A02338362B3E703685B6803F083
:1058D0007F031370AAE7FDF7B1FAE5E702207047EE
:1058E0000020704710B582B0044602681368D06883
:1058F000516913F00F0F09D113F0200F0CD010F0E5
:10590000200F09D02046FFF77CFF16E011F00101BF
:1059100015D110F4907F12D1216B012979D013F0A9
:10592000800F03D010F0800F40F0108113F0400F73
:1059300003D010F0400F40F00D8102B010BD13F005
:10594000010F06D010F4807F03D0226C42F00102D8
:10595000226413F0040F04D019B1226C42F0020249
:10596000226413F0020F04D019B1226C42F0040239
:10597000226413F0080F07D010F0200F00D119B1E6
:10598000226C42F008022264226C002AD5D013F067
:10599000200F02D010F0200F29D123685B6903F09B
:1059A0004003226C12F0080F00D163B32046FFF7CA
:1059B000FBFD23685B6913F0400F20D0226802F1E1
:1059C000140353E8003F23F04003143242E800314F
:1059D0000029F3D1A36B73B1604A1A65A06BFDF780
:1059E0000BFE0028A9D0A06B036D9847A5E72046C1
:1059F000FFF707FFD1E72046FFF7F9FE9DE72046B6
:105A0000FFF7F5FE99E72046FFF7F1FE0023236438
:105A100093E713F0100F82D010F0100F3FF47FAF18
:105A2000002301931368019353680193019B536909
:105A300013F0400F50D0A26B13685B689BB2002B31
:105A40003FF47BAFA18D99427FF677AFE385D369B1
:105A5000B3F5807F37D0226802F10C0353E8003F92
:105A600023F480730C3242E800310029F3D122681C
:105A700002F1140353E8003F23F00103143242E81B
:105A800000310029F3D1226802F1140353E8003FEA
:105A900023F04003143242E800310029F3D12023DF
:105AA00084F83E3000232363226802F10C0353E89C
:105AB000003F23F010030C3242E800310029F3D1FB
:105AC000A06BFDF74FFDA18DE38D9BB2C91A89B282
:105AD0002046FFF795FE30E7A18DE38D9BB2C91AF2
:105AE00089B2E38D9BB2002B3FF427AF00293FF42E
:105AF00024AF226802F10C0353E8003F23F49073B3
