:020000040800F2
:10000000000002209943000895420008974200082A
:10001000994200089B4200089D4200080000000031
:100020000000000000000000000000009F420008E7
:10003000A142000800000000A3420008A5420008F9
:10004000E9430008E9430008E9430008E9430008E0
:10005000E9430008E9430008E9430008E9430008D0
:10006000E9430008E9430008AD420008E9430008FD
:10007000E9430008E9430008E9430008E9430008B0
:10008000E9430008E9430008E943000800000000D4
:10009000000000000000000000000000E94300082C
:1000A000E9430008E9430008E9430008E943000880
:1000B000E9430008E9430008E9430008E943000870
:1000C000E9430008E9430008E9430008E943000860
:1000D000E9430008B9420008E943000800000000B5
:1000E000E9430008E9430008E94300080000000074
:1000F000000000000000000000000000E9430008CC
:1001000000000000E9430008E9430008E943000853
:1001100000000000000000000000000000000000DF
:10012000E9430008E9430008E9430008E9430008FF
:10013000E94300080000000000000000000000008B
:10014000000000000000000000000000C94200089C
:10015000E9430008E9430008E9430008E9430008CF
:10016000E9430008E9430008000000000000000027
:10017000000000000000000000000000000000007F
:1001800000000000E943000800000000000000003B
:08019000E9430008E9430008FF
:1001C00010B5054C237833B9044B13B10448AFF391
:1001D00000800123237010BD3819002000000000AA
:1001E00050F3000808B5034B1BB103490348AFF3B4
:1001F000008008BD000000003C19002050F30008FA
:100200004FF0FF0C1CEAD0521EBF1CEAD15392EAF9
:100210000C0F93EA0C0F6FD01A4480EA010C4002D5
:1002200018BF5FEA41211ED04FF0006343EA50102F
:1002300043EA5111A0FB01310CF00040B1F5000F71
:100240003EBF490041EAD3715B0040EA010062F120
:100250007F02FD2A1DD8B3F1004F40EBC25008BF0A
:1002600020F00100704790F0000F0CF0004C08BF28
:1002700049024CEA502040EA51207F3AC2BFD2F1F5
:10028000FF0340EAC250704740F400004FF0000303
:10029000013A5DDC12F1190FDCBF00F0004070473D
:1002A000C2F10002410021FA02F1C2F1200200FA7B
:1002B00002FC5FEA310040F1000053EA4C0308BF42
:1002C00020EADC70704792F0000F00F0004C02BF93
:1002D000400010F4000F013AF9D040EA0C0093F00E
:1002E000000F01F0004C02BF490011F4000F013B68
:1002F000F9D041EA0C018FE70CEAD15392EA0C0FD6
:1003000018BF93EA0C0F0AD030F0004C18BF31F040
:10031000004CD8D180EA010000F00040704790F016
:10032000000F17BF90F0004F084691F0000F91F0BA
:10033000004F14D092EA0C0F01D142020FD193EA80
:100340000C0F03D14B0218BF084608D180EA010008
:1003500000F0004040F0FE4040F40000704740F0E4
:10036000FE4040F44000704781F0004102E000BFD1
:1003700083F0004330B54FEA41044FEA430594EA65
:10038000050F08BF90EA020F1FBF54EA000C55EAA0
:10039000020C7FEA645C7FEA655C00F0E2804FEA71
:1003A0005454D4EB5555B8BF6D420CDD2C4480EA53
:1003B000020281EA030382EA000083EA010180EA83
:1003C000020281EA0303362D88BF30BD11F0004FD1
:1003D0004FEA01314FF4801C4CEA113102D0404207
:1003E00061EB410113F0004F4FEA03334CEA133342
:1003F00002D0524263EB430394EA050F00F0A7805A
:10040000A4F10104D5F1200E0DDB02FA0EFC22FA54
:1004100005F2801841F1000103FA0EF2801843FA48
:1004200005F359410EE0A5F120050EF1200E012A39
:1004300003FA0EFC28BF4CF0020C43FA05F3C01877
:1004400051EBE37101F0004507D54FF0000EDCF1F0
:10045000000C7EEB00006EEB0101B1F5801F1BD399
:10046000B1F5001F0CD349085FEA30004FEA3C0C9D
:1004700004F101044FEA445212F5800F80F09A8093
:10048000BCF1004F08BF5FEA500C50F1000041EB97
:10049000045141EA050130BD5FEA4C0C404141EB9B
:1004A0000101013C28BFB1F5801FE9D291F0000F96
:1004B00004BF01460020B1FA81F308BF2033A3F145
:1004C0000B03B3F120020CDA0C3208DD02F1140C3C
:1004D000C2F10C0201FA0CF021FA02F10CE002F177
:1004E0001402D8BFC2F1200C01FA02F120FA0CFC70
:1004F000DCBF41EA0C019040E41AA2BF01EB0451B9
:10050000294330BD6FEA04041F3C1CDA0C340EDCB6
:1005100004F11404C4F1200220FA04F001FA02F3F9
:1005200040EA030021FA04F345EA030130BDC4F1B7
:100530000C04C4F1200220FA02F001FA04F340EAAC
:100540000300294630BD21FA04F0294630BD94F05D
:10055000000F83F4801306BF81F480110134013D44
:100560004EE77FEA645C18BF7FEA655C29D094EAB5
:10057000050F08BF90EA020F05D054EA000C04BF33
:100580001946104630BD91EA030F1EBF002100201E
:1005900030BD5FEA545C05D14000494128BF41F0BD
:1005A000004130BD14F580043CBF01F5801130BD21
:1005B00001F0004545F0FE4141F470014FF00000AC
:1005C00030BD7FEA645C1ABF194610467FEA655C5D
:1005D0001CBF0B46024650EA013406BF52EA0335FF
:1005E00091EA030F41F4002130BD00BF90F0000FED
:1005F00004BF0021704730B54FF4806404F1320429
:100600004FF000054FF0000150E700BF90F0000FE1
:1006100004BF0021704730B54FF4806404F1320408
:1006200010F0004548BF40424FF000013EE700BFD8
:1006300042004FEAE2014FEA31014FEA02701FBF68
:1006400012F07F4393F07F4F81F06051704732F09A
:100650007F4208BF704793F07F4F04BF41F40021F1
:10066000704730B54FF4607401F0004521F000414F
:100670001CE700BF50EA010208BF704730B54FF0D9
:1006800000050AE050EA010208BF704730B511F0DA
:10069000004502D5404261EB41014FF4806404F112
:1006A00032045FEA915C3FF4D8AE4FF003025FEA98
:1006B000DC0C18BF03325FEADC0C18BF033202EB1C
:1006C000DC02C2F1200300FA03FC20FA02F001FA76
:1006D00003FE40EA0E0021FA02F11444BDE600BF19
:1006E00080F0004002E000BF81F0004142001FBFE7
:1006F0005FEA410392EA030F7FEA226C7FEA236CF0
:100700006AD04FEA1262D2EB1363C1BFD2184140E4
:1007100048404140B8BF5B42192B88BF704710F07A
:10072000004F40F4000020F07F4018BF404211F01D
:10073000004F41F4000121F07F4118BF494292EA85
:10074000030F3FD0A2F1010241FA03FC10EB0C00B1
:10075000C3F1200301FA03F100F0004302D549423E
:1007600060EB4000B0F5000F13D3B0F1807F06D3EB
:1007700040084FEA310102F10102FE2A51D2B1F1E3
:10078000004F40EBC25008BF20F0010040EA0300D8
:100790007047490040EB0000013A28BFB0F5000F58
:1007A000EDD2B0FA80FCACF1080CB2EB0C0200FA0E
:1007B0000CF0AABF00EBC25052421843BCBFD0405D
:1007C0001843704792F0000F81F4000106BF80F4D7
:1007D00000000132013BB5E74FEA41037FEA226C9A
:1007E00018BF7FEA236C21D092EA030F04D092F065
:1007F000000F08BF0846704790EA010F1CBF002099
:10080000704712F07F4F04D1400028BF40F00040F5
:10081000704712F100723CBF00F50000704700F015
:10082000004343F0FE4040F4000070477FEA22623C
:1008300016BF08467FEA23630146420206BF5FEA0D
:10084000412390EA010F40F4800070474FF000030D
:1008500004E000BF10F0004348BF40425FEA000CD4
:1008600008BF704743F0964301464FF000001CE07C
:1008700050EA010208BF70474FF000030AE000BFD2
:1008800050EA010208BF704711F0004302D5404210
:1008900061EB41015FEA010C02BF84460146002082
:1008A00043F0B64308BFA3F18053A3F50003BCFA9D
:1008B0008CF2083AA3EBC25310DB01FA02FC63444A
:1008C00000FA02FCC2F12002BCF1004F20FA02F251
:1008D00043EB020008BF20F00100704702F1200244
:1008E00001FA02FCC2F1200250EA4C0021FA02F2A5
:1008F00043EB020008BF20EADC70704753B94AB9E5
:10090000002908BF00281CBF4FF0FF314FF0FF3017
:1009100001F0DEB8ADF1080C6DE904CE00F006F888
:10092000DDF804E0DDE9022304B070472DE9F0476B
:10093000089E0D4604468846002B4DD18A429446B7
:1009400068D9B2FA82F252B101FA02F3C2F120017F
:1009500020FA01F10CFA02FC41EA030894404FEA44
:100960001C45210CB8FBF5FE1FFA8CF705FB1E8316
:1009700041EA03430EFB07F199420BD91CEB030339
:100980000EF1FF3080F01E81994240F21B81AEF1E2
:10099000020E63445B1AA4B2B3FBF5F005FB1033FF
:1009A00044EA034400FB07F7A7420AD91CEB0404FE
:1009B00000F1FF3380F00881A74240F205816444D2
:1009C0000238E41B40EA0E4000211EB1D44000234F
:1009D000C6E90043BDE8F0878B4208D9002E00F03D
:1009E000EE800021C6E900050846BDE8F087B3FAAD
:1009F00083F100294AD1AB4202D3824200F2F9804E
:100A0000841A65EB030301209846002EE2D0C6E964
:100A10000048DFE702B9FFDEB2FA82F2002A40F0B6
:100A20009180A1EB0C054FEA1C471FFA8CFE0121B7
:100A3000B5FBF7F307FB1350250C45EA00450EFB09
:100A400003F0A84208D91CEB050503F1FF3802D2D8
:100A5000A84200F2CB8043462D1AA4B2B5FBF7F0B2
:100A600007FB105544EA05440EFB00FEA64508D9D5
:100A70001CEB040400F1FF3502D2A64500F2BB8056
:100A80002846A4EB0E0440EA03409EE7C1F120078C
:100A90008B4022FA07FC4CEA030C20FA07F405FA13
:100AA00001F31C43FD404FEA1C4900FA01F3B5FB7A
:100AB000F9F8200C1FFA8CFE09FB185540EA054591
:100AC00008FB0EF0A84202FA01F20BD91CEB050557
:100AD00008F1FF3A80F08880A84240F28580A8F1B2
:100AE000020865442D1AA4B2B5FBF9F009FB1055B4
:100AF00044EA054500FB0EFEAE4508D91CEB050592
:100B000000F1FF346CD2AE456AD90238654440EA40
:100B10000840A0FB0294A5EB0E05A542C846A646D8
:100B200056D353D05EB1B3EB080265EB0E0505FA60
:100B300007F722FA01F3CD401F43C6E900750021F3
:100B4000BDE8F087C2F1200320FA03F10CFA02FCA1
:100B500025FA03F395400D434FEA1C471FFA8CFE1C
:100B6000B3FBF7F107FB11302B0C43EA004301FB09
:100B70000EF0984204FA02F408D91CEB030301F1C9
:100B8000FF382FD298422DD9023963441B1AADB2D7
:100B9000B3FBF7F007FB103345EA034500FB0EF308
:100BA000AB4208D91CEB050500F1FF3816D2AB4269
:100BB00014D902386544ED1A40EA014138E731465C
:100BC000304607E78646E5E61846FAE64B45A9D2E1
:100BD000B9EB020864EB0C0E0138A3E74046EAE7E4
:100BE000204694E74146D1E7D0467BE7023B654487
:100BF00032E7084609E76444023842E703685A00CE
:100C00004CBF43F0004323F000431844704700BF3B
:100C10002DE9F84329B34F1E044615463E464FF0D2
:100C2000000808EB060101EBD171491004EBC10982
:100C30004846FFF7E3FF0346C80008308F422044D0
:100C400009D0AB4209D8FFF7D9FF0138A8420AD230
:100C500001F10108E5E7AB4205D9884501D04E1EF8
:100C6000DFE74FF000094846BDE8F883012807D0C8
:100C7000022807D0044B00280CBF184600207047FC
:100C8000024870470248704745130008491300089E
:100C90004D13000830B5234B83B004468D1E3BB383
:100CA00001A92846AFF30080E8B101992A46FFF771
:100CB000AFFF0146B8B1FFF7A1FF4B68A064012B5D
:100CC0002CD0002B01F1040024DBFFF797FF002359
:100CD000C4E913030368002B11DBFFF78FFF2061CA
:100CE000002003B030BD00230920236103B030BDD4
:100CF0000D4B0E49C91AC91018460191D6E7C3F326
:100D00000360FFF7B3FF0028206114BF0020092013
:100D100003B030BD0123C4E91303DBE700232361E3
:100D20000520DEE700000000D0FB000878FD000889
:100D30000368DA0710B5044606D49B0700F14800A3
:100D400009D500F05BFC2368590709D51A070ED5B1
:100D5000DB0613D510BD00F049FC23685907F5D414
:100D600004F1D00000F052FC23681A07F0D404F517
:100D7000A87000F053FC2368DB06EBD404F5E870A0
:100D8000BDE8104000F08EBC0920704703460068A3
:100D900000B11844704700BF704700BF70B50446EB
:100DA0000E46316C2046FFF775FF054688B9326C58
:100DB0006261236932462146012098470828F0D015
:100DC000072806D12846316CFFF7E6FF301D00F0FA
:100DD00001FC08F039FB00BF2DE9F0470D1DD0F8EC
:100DE0000C80D0F81890074614460FCDADF5727DF3
:100DF0000DF10C0CACE80F000FCDACE80F000FCDDF
:100E0000ACE80F0095E80F0002AE4FF0000E8CE842
:100E10000F00C6F800E020E0336C7B614FF4F07205
:100E200031467AA800F056FE3B697AAA3946504608
:100E30009847889B73642146CDE9006905463B4687
:100E40003A460120C0470446E0B94FF4F0727AA94F
:100E5000304600F03FFE082D1AD1316C3846FFF7BE
:100E600019FF09345FFA84FA05460028D4D0B36B21
:100E700073643A46CDE900693B464AF0100101200F
:100E8000C04700B1092528460DF5727DBDE8F08701
:100E9000072DF7D12046316CFFF77EFF03A800F045
:100EA00099FB00BF406C7047F0B5CB6B0B6401F150
:100EB000040C0E460546BCE80F00F9B001AC0FC4A7
:100EC000BCE80F000FC4BCE80F000FC49CE80F0083
:100ED0004FF0FF3784E80F00009706E02B696A4661
:100EE000294698470828044608D110992846FFF754
:100EF000D1FE0028F2D0092079B0F0BD6846FFF796
:100F000017FF062CF7D131462846FFF747FF00BFF1
:100F1000C160D96B82611964002219465CE700BF89
:100F200070B5C66843690B64AEB903690A460446E6
:100F30000D46014602209847072805D008280FD102
:100F400029462046FFF72AFF3046296CFFF724FF89
:100F5000281D00F03FFB0122FFF73EFF08F074FA66
:100F600008F072FAC2681AB1CA6B0A64002233E749
:100F70009AE700BF704700BF836801460BB10120AC
:100F800018477047012912D009D873B90F2A0CD815
:100F900000EB820218465368009A136070470339C9
:100FA000012994BF012002207047022070470846A3
:100FB000704700BF00B585B00A46002303A9009121
:100FC0001946FFF7DFFF039805B05DF804FB00BF8B
:100FD000012912D009D873B90F2A0CD800EB82006E
:100FE000009A12684260184670470339012994BF7D
:100FF000012002207047022070470846704700BF5A
:1010000010B584B0002303AC039200940A4619463D
:10101000FFF7DEFF04B010BD70B5D36B136402F1AF
:10102000040C05460C46BCE80F00ADF50E7D0DF135
:101030005C0EAEE80F00BCE80F00AEE80F00BCE8A5
:101040000F00AEE80F009CE80F004FF0FF368EE86F
:101050000F00169610E0FFF7D3FF214616A8A84709
:10106000034616AA6946082083B9049B98470528B9
:1010700006460CD0092809D026996846FFF70AFED3
:1010800003466A460C2116A8002BE4D0092616A8B0
:10109000FFF74EFE30460DF50E7D70BD2DE9F04F89
:1010A000CC6C89B01E4654F8043B06940D46174696
:1010B00000F00308002E79D01A0C1B0405938DF85C
:1010C0001D200223D2B204EB82048DF81C302B6D5C
:1010D000B8F1020F08BFAC6B13F001030CD005A9E7
:1010E000384600F079FB18B9082009B0BDE8F08F48
:1010F000092009B0BDE8F08FD4F800A0BAF1000FC4
:10110000EDD0019300F008030293022E4AD0B4F808
:1011100000A0B4F802900434AB6C29F0010B0F214D
:1011200038469B44FFF746FF834539D82AF0010330
:101130009B44834594BF002001204FEA490303F0FC
:1011400002030AF0010A43EA0A03012B49D0022BE9
:1011500032D0002BCCD1B8F1000F02D0002840F0E3
:10116000CD800434D4F800A0BAF1000FCDD105A988
:10117000384600F031FB0028BAD1019B002BB3D0D8
:101180000F213846FFF716FF0E2102463846FFF7BB
:1011900037FF38466A4A0F21FFF732FF0720A8E7DA
:1011A0000020CAE7D4F804900834B5E71B02059381
:1011B0000323ADF81C308AE7236823F0004BB8F115
:1011C000000F45D128B1029A002A5CD0BBF1000F74
:1011D00074D0002B00DA04340BF1010B04EB8B0408
:1011E000C0E7B8F1000F19D1B0B163682268991C4B
:1011F0004FEAD2723FF47CAF05F1580101330491FC
:1012000000F09080201DFFF7C1FD04AB0146284689
:10121000AFF3008000285BD10834A3E70D213846E6
:10122000D5F82090FFF7C6FE8145F5D1AB6A9C4208
:10123000F2D12046FFF7E2FC0F2102463846FFF7C5
:10124000DFFE38462A460021FFF7DAFE072050E786
:101250000D213846D5F82090FFF7ACFE814501D02E
:101260002368B6E7AB6A9C42FAD104230022C5E9A1
:101270000B23E318C5F828B06B632368002B59DBF8
:1012800001230193A8E705F15803CDF80C8004F180
:10129000040AB04691461E460EE050460496FFF7FB
:1012A00075FD0022014604AB284609F101090AF147
:1012B000040AAFF30080E0B9D945EED10D213846DC
:1012C000FFF778FE049BAC62C5E90803062010E72F
:1012D00081460D213846FFF76DFEB9F1020F2862F5
:1012E00025D12B46049A43F82C2F6B62AC62062062
:1012F000FFE646462368DDF80C806AE72046FFF7E4
:101300007DFC04340246AC6328461446AFF30080EB
:1013100000283FF4EDAE384622460F21FFF770FE5D
:101320000720E6E60D213846FFF744FE2862049BBD
:101330006B62DBE70BF1010004EB80007AE700BF92
:10134000000000000023A9E60123A7E60223A5E68A
:101350002DE9F0430646C3B015461C46042900F2A9
:10136000BF80DFE801F09E57BD2D0300002C40F048
:10137000B780102A00F2B4800368D80600F1F98023
:1013800020AF384600F098F9B46B394600234FF08F
:10139000010C0CFA03F22A42204603F1010303D0A8
:1013A00050F8042B0A600446042B01F10401F0D12B
:1013B0003846B46300F076F9002043B0BDE8F0830E
:1013C000032C40F08D8094B204EB1243102B4FEAB3
:1013D000124500F2858003681F0700F1D28020AF1C
:1013E000384600F03DF9B26B07EBC50154B10B462E
:1013F000D01A01EBC401E4001D5843F8045B8B4292
:10140000FAD122443846B26300F008F9002043B014
:10141000BDE8F083012C4FEA124895B25CD0052C50
:101420005ED108EB0509B9F1200F59D8B8F10F0FBB
:1014300079D9A946002D40F08A80B36B6DB320AFF7
:101440004FF0000907EBC807043F03EBC50553F84D
:10145000041B47F8041FAB42F9D1B9F1000F0FD0BC
:101460006F464146102938BF102107EBC10184396E
:1014700003EBC90553F8040B41F8040FAB42F9D153
:10148000012C00F08680B8F10F0FB56347D9B9F190
:10149000000F02D0684600F0B9F8002043B0BDE864
:1014A000F083ECB9806B23461FFA82FC0124371DC0
:1014B00004FA03F212EA0C0F014604D051F8042B8F
:1014C00047F8232008460133102BF1D115F40055BD
:1014D000E3D1B063284604E008EB0503102B03D9E1
:1014E000022043B0BDE8F083B8F10F0FF8D833689D
:1014F000DA0706D5304623F0030340F8483B00F0F6
:1015000079F820AF384600F075F8B36B002D97D10D
:101510001D460435B563384600F068F8BDE720A8DD
:1015200000F06CF8B3E7B9F1100F40D9A9F1100938
:101530003368D90708D523F00103304643F002038E
:1015400040F8483B00F05EF8B9F1000F32D0336844
:101550005A0720D4B8F10F0F25D96F463846C8F185
:10156000100500F057F8002DB36B7FF77AAF20AF6E
:1015700068E723F01003336006F5E87000F09CF88C
:10158000FEE623F00803036000F5A87000F068F899
:1015900025E720AFBDE7304623F0040340F8D03BF9
:1015A00000F038F8D6E720A800F02CF8D5E74FF087
:1015B0000009BDE7B8F10F0F3FF63FAF20AF384647
:1015C00000F020F8B36B002D7FF43AAF384600F0FE
:1015D00015F862E700F1340191E838009C46A64610
:1015E0004CF8045D90E8FF0FE54600BD90EC210B40
:1015F000704700BF80EC210B704700BF90EC200BC0
:10160000704700BF80EC200B704700BFD0EC200B70
:10161000704700BFC0EC200B704700BFF0EC020128
:10162000F0EC0211F0EC0221F0EC0231F0EC02419E
:10163000F0EC0251F0EC0261F0EC0271F0EC02818E
:10164000F0EC0291F0EC02A1F0EC02B1F0EC02C17E
:10165000F0EC02D1F0EC02E1F0EC02F1704700BFD7
:10166000E0EC0201E0EC0211E0EC0221E0EC0231DE
:10167000E0EC0241E0EC0251E0EC0261E0EC0271CE
:10168000E0EC0281E0EC0291E0EC02A1E0EC02B1BE
:10169000E0EC02C1E0EC02D1E0EC02E1E0EC02F1AE
:1016A000704700BFB0FC0181B0FC0191B0FC01A10A
:1016B000B0FC01B1704700BFA0FC0181A0FC01910A
:1016C000A0FC01A1A0FC01B1704700BFEC4600B531
:1016D0002DE900502DE9FF1F4FF000032DE90C000C
:1016E00001A9FFF7E1FBDDF840E012B0704700BF51
:1016F000EC4600B52DE900502DE9FF1F4FF0000327
:101700002DE90C0001A9FFF70BFCDDF840E012B059
:10171000704700BFEC4600B52DE900502DE9FF1FD2
:101720004FF000032DE90C0001A9FFF71BFCDDF8C9
:1017300040E012B0704700BFEC4600B52DE9005004
:101740002DE9FF1F4FF000032DE90C0001ABFFF75F
:10175000DFFBDDF840E012B0704700BFEC4600B59B
:101760002DE900502DE9FF1F4FF000032DE90C007B
:1017700001AAFFF751FCDDF840E012B0704700BF4E
:10178000027A03467AB9427AA2B14168013A10B4AA
:101790004272086803220C1D1A7202025C60000E7D
:1017A00010BC1A6070470068013A1A7202021A608F
:1017B000000E7047B020704700B585B0002303AA23
:1017C000009219460C22FFF7DDFB039805B05DF887
:1017D00004FB00BFF0E700BF2DE9F043054685B0EC
:1017E0000E464FF000083046FFF7CAFFB028044607
:1017F00000F0BA80070620D500F0F003802B4DD012
:10180000902B36D0A02B60D0B02B74D0C02B00F022
:101810008B8000F0F803D02B0BD100F007020132CF
:10182000052342F4002201212846FFF791FD0028FC
:10183000D9D0092005B0BDE8F0838300DBB21F1DBD
:101840000DF10C0900231946CDF800900D22284611
:10185000FFF798FB039BCDF8009060064CBFDF1BA1
:10186000FF1800230D22194628460397FFF7B0FB07
:10187000B9E700F00D030D2BDBD003AF002300F020
:101880000F02194600972846FFF77CFB00230097BC
:101890000D2219462846FFF79BFBA4E73046FFF7C9
:1018A0006FFF24022043B0F5004FC2D00401002393
:1018B000A2B219462846FFF74BFD0028B9D114F40F
:1018C000004F18BF4FF001088DE7C24302F0070335
:1018D0004FF47F621A41010702F47F624FF0000368
:1018E00048BF42F4804219462846FFF731FD0028E0
:1018F0003FF479AF9DE7B1283BD0B22800F0938048
:10190000B32841D000F0FC03B42B92D000F00702C2
:101910000132012342F4002219462846FFF718FD40
:1019200000283FF460AF84E7C6284AD0C72854D0C7
:1019300000F0F803C02B63D0C82868D0C9287FF412
:1019400078AF3046FFF71CFF020300F00F0002F4EF
:10195000702201300243012105232846FFF7F8FCDD
:1019600000283FF440AF64E7B8F1000F18D0002022
:1019700060E73046FFF704FF024600283FF459AF06
:1019800010F0F003C8D054E73046FFF7F9FE020329
:1019900000F00F03013302F470221A430123BBE766
:1019A00003AC43460E22414600942846FFF7EAFA6C
:1019B000009443460F2241462846FFF709FB404664
:1019C00038E73046FFF7DCFE020300F00F03013377
:1019D00002F470221A4303239EE73046FFF7D0FE3D
:1019E000024600283FF425AF10F0F0037FF421AF4A
:1019F00004212846FFF7ACFC00283FF4F4AE18E7BA
:101A000000F00F020132032342F4202284E7304623
:101A1000FFF7B6FE00F0F00200F00F0310320133C2
:101A200043EA023297E700230DF10C090D22194613
:101A3000CDF800902846FFF7A5FA3046FFF7A0FE44
:101A400002064FF002040CD5039B00F07F00A0407B
:101A5000184403903046FFF793FE030604F1070491
:101A6000F2D4039BCDF8009000F07F02A24003F572
:101A700001731A440023039219460D222846FFF7EA
:101A8000A7FAB0E610B5C26C536884B04FF0030CEF
:101A900008321C0208461B0E01A9019402928DF81F
:101AA0000CC08DF80D30FFF797FE04B010BD00BFDD
:101AB00008B5FFF78FFE806C08BD00BF08B5FFF7C3
:101AC00089FEC06CC379023300EB830008BD00BF00
:101AD000704700BF844641EA000313F003036DD151
:101AE000403A41D351F8043B40F8043B51F8043BE1
:101AF00040F8043B51F8043B40F8043B51F8043BE8
:101B000040F8043B51F8043B40F8043B51F8043BD7
:101B100040F8043B51F8043B40F8043B51F8043BC7
:101B200040F8043B51F8043B40F8043B51F8043BB7
:101B300040F8043B51F8043B40F8043B51F8043BA7
:101B400040F8043B51F8043B40F8043B51F8043B97
:101B500040F8043B51F8043B40F8043B51F8043B87
:101B600040F8043B403ABDD2303211D351F8043B27
:101B700040F8043B51F8043B40F8043B51F8043B67
:101B800040F8043B51F8043B40F8043B103AEDD2D6
:101B90000C3205D351F8043B40F8043B043AF9D227
:101BA000043208D0D2071CBF11F8013B00F8013BFA
:101BB00001D30B8803806046704700BF082A13D307
:101BC0008B078DD010F003038AD0C3F10403D21A1F
:101BD000DB071CBF11F8013B00F8013B80D331F853
:101BE000023B20F8023B7BE7043AD9D3013A11F8D3
:101BF000013B00F8013BF9D20B7803704B7843703E
:101C00008B78837060467047000000000000000081
:101C100000000000000000000000000000000000C4
:101C2000A2EB0300704700BF02780B78012A28BF9F
:101C30009A42F5D16DE9044540EA0104CDE9026715
:101C40006FF0000C4FEA447212B380EA010414F002
:101C5000070F6AD100F0070420F0070004F0030525
:101C600021F007014FEAC505F0E8042314F0040F42
:101C7000F1E804670CFA05F462EA040266EA040675
:101C80000AD063EA0403624667EA0407664603E093
:101C9000F0E80423F1E8046782FA4CF582EA0604CE
:101CA000A4FA8CF46CBB83FA4CF583EA0705A5FA19
:101CB0008CF595B950E9022351E9026782FA4CF597
:101CC00082EA0604A4FA8CF483FA4CF583EA070549
:101CD000A5FA8CF52543DBD09CB92DBAB5FA85F46D
:101CE00024F0070427FA04F1DDE9026723FA04F37C
:101CF00003F0FF0001F0FF01FDE80445A0EB010047
:101D0000704724BAB4FA84F424F0070426FA04F1E4
:101D1000DDE9026722FA04F202F0FF0001F0FF01A0
:101D2000FDE80445A0EB0100704714F0030F3CD11F
:101D300010F0030428D150F8082B51F8083B82FA20
:101D40004CF582EA0305A5FA8CF55DB950F8042C30
:101D500051F8043C82FA4CF582EA0305A5FA8CF5A9
:101D6000002DE8D02DBAB5FA85F424F0070423FA43
:101D700004F122FA04F202F0FF0001F0FF01FDE895
:101D80000445A0EB010070474FEAC40420F00300B3
:101D900050F8082B21F0030151F8083B0CFA04F429
:101DA00062EA040263EA0403C9E710F003041AD0EC
:101DB000A1EB040120F00300E40750F8042B06D047
:101DC0000FD28B785FFAA2F4E41A06D12BB1CB784C
:101DD0005FFAB2F4E41A00D11BB920465DF8104B4B
:101DE000704701F1040150F8042BCC0721F00301E6
:101DF00051F8043B48D824D222F07F4482FA4CF5B3
:101E000094EA1325A5FA8CF50AD165B951F8043B7B
:101E100084EA0204B4EB036F0ED150F8042BEBE715
:101E20004FEA132355E035F07F454DD10878FDE8A2
:101E30000445C0F1000070474FEA126203F0FF034F
:101E400047E002EA1C4482FA4CF594EA1345A5FAED
:101E50008CF50AD165B951F8043B84EA0204B4EB6D
:101E6000034F0CD150F8042BEBE74FEA134330E05B
:101E700015EA1C4528D10B884FEA124229E04FEAA7
:101E8000124203EA1C4324E002F0FF0482FA4CF5FC
:101E900094EA1365A5FA8CF50AD165B951F8043BAB
:101EA00084EA0204B4EB032F09D150F8042BEBE7CA
:101EB0004FEA13630DE015F0FF0F05D10B684FEAF1
:101EC000122223F07F4304E04FF00000FDE80445B8
:101ED000704712BA1BBA82FA4CF482EA0304A4FADD
:101EE0008CF5B5FA85F402FA04F203FA04F34FEA2A
:101EF0001260FDE80445A0EB13607047000000008D
:101F000001F0FF01102A2BDB10F0070F08D010F8AA
:101F1000013B013A8B422DD010F0070F42B3F6D1AE
:101F2000F0B441EA012141EA014122F007047FF0C7
:101F300000070023F0E80256083C85EA010586EA1E
:101F4000010685FA47F5A3FA87F586FA47F6A5FA5A
:101F500087F68EB9EED1F0BC01F0FF0102F0070266
:101F600032B110F8013B013A83EA010313B1F8D111
:101F70000020704701387047002D06BF35460338F2
:101F8000073815F0010F07D1013015F4807F02BF2B
:101F9000013015F4C03F0130F0BC0138704700BF7C
:101FA0000000000000000000000000000000000031
:101FB0000000000000000000000000000000000021
:101FC00090F800F06DE9024520F007016FF0000C79
:101FD00010F0070491F820F040F049804FF0000421
:101FE0006FF00700D1E9002391F840F000F10800FC
:101FF00082FA4CF2A4FA8CF283FA4CF3A2FA8CF334
:102000004BBBD1E9022382FA4CF200F10800A4FA9A
:102010008CF283FA4CF3A2FA8CF3E3B9D1E90423EE
:1020200082FA4CF200F10800A4FA8CF283FA4CF325
:10203000A2FA8CF37BB9D1E9062301F1200182FADF
:102040004CF200F10800A4FA8CF283FA4CF3A2FAE5
:102050008CF3002BC6D0002A04BF04301A4612BAF3
:10206000B2FA82F2FDE8024500EBD2007047D1E9F6
:10207000002304F00305C4F100004FEAC50514F085
:10208000040F91F840F00CFA05F562EA05021CBF56
:1020900063EA050362464FF00004A9E770B54FF00C
:1020A000FF0C4CF4E06C1CEA11541DBF1CEA1355E4
:1020B00094EA0C0F95EA0C0F00F0DEF82C4481EA4C
:1020C000030621EA4C5123EA4C5350EA013518BF6C
:1020D00052EA033541F4801143F4801338D0A0FB59
:1020E00002CE4FF00005E1FB02E506F00042E0FB06
:1020F00003E54FF00006E1FB03569CF0000F18BF0C
:102100004EF0010EA4F1FF04B6F5007F64F54074B3
:1021100004D25FEA4E0E6D4146EB060642EAC62146
:1021200041EA55514FEAC52040EA5E504FEACE2EB3
:10213000B4F1FD0C88BFBCF5E06F1ED8BEF1004FB6
:1021400008BF5FEA500E50F1000041EB045170BD32
:1021500006F0004646EA010140EA020081EA030176
:10216000B4EB5C04C2BFD4EB0C0541EA045170BD72
:1021700041F480114FF0000E013C00F3AB8014F1EC
:10218000360FDEBF002001F0004170BDC4F1000435
:10219000203C35DA0C341BDC04F11404C4F12005B6
:1021A00000FA05F320FA04F001FA05F240EA020011
:1021B00001F0004221F0004110EBD37021FA04F647
:1021C00042EB06015EEA430E08BF20EAD37070BD01
:1021D000C4F10C04C4F1200500FA04F320FA05F060
:1021E00001FA04F240EA020001F0004110EBD37062
:1021F00041F100015EEA430E08BF20EAD37070BDD2
:10220000C4F1200500FA05F24EEA020E20FA04F3AA
:1022100001FA05F243EA020321FA04F001F0004159
:1022200021FA04F220EA020000EBD3705EEA430ECA
:1022300008BF20EAD37070BD94F0000F0FD101F0F9
:102240000046400041EB010111F4801F08BF013C32
:10225000F7D041EA060195F0000F18BF704703F070
:102260000046520043EB030313F4801F08BF013DF7
:10227000F7D043EA0603704794EA0C0F0CEA1355B3
:1022800018BF95EA0C0F0CD050EA410618BF52EA6D
:102290004306D1D181EA030101F000414FF0000073
:1022A00070BD50EA410606BF1046194652EA430681
:1022B00019D094EA0C0F02D150EA013613D195EAF5
:1022C0000C0F05D152EA03361CBF104619460AD13D
:1022D00081EA030101F0004141F0FE4141F4700147
:1022E0004FF0000070BD41F0FE4141F4780170BD37
:1022F00070B54FF0FF0C4CF4E06C1CEA11541DBF9C
:102300001CEA135594EA0C0F95EA0C0F00F0A7F89D
:10231000A4EB050481EA030E52EA03354FEA0131CA
:1023200000F088804FEA03334FF0805545EA1313DD
:1023300043EA12634FEA022245EA111545EA1065A5
:102340004FEA00260EF000419D4208BF964244F13C
:10235000FD0404F5407402D25B084FEA3202B61A5B
:1023600065EB03055B084FEA32024FF480104FF42F
:10237000002CB6EB020E75EB030E22BFB61A7546A3
:1023800040EA0C005B084FEA3202B6EB020E75EB36
:10239000030E22BFB61A754640EA5C005B084FEA9E
:1023A0003202B6EB020E75EB030E22BFB61A75466B
:1023B00040EA9C005B084FEA3202B6EB020E75EB76
:1023C000030E22BFB61A754640EADC0055EA060E37
:1023D00018D04FEA051545EA16754FEA06164FEA7A
:1023E000C30343EA52734FEAC2025FEA1C1CC0D126
:1023F00011F4801F0BD141EA00014FF000004FF0B3
:10240000004CB6E711F4801F04BF01430020B4F173
:10241000FD0C88BFBCF5E06F3FF6AFAEB5EB030C2B
:1024200004BFB6EB020C5FEA500C50F1000041EB28
:10243000045170BD0EF0004E4EEA113114EB5C04F5
:10244000C2BFD4EB0C0541EA045170BD41F48011C8
:102450004FF0000E013C90E645EA060E8DE60CEAD0
:10246000135594EA0C0F08BF95EA0C0F3FF43BAFED
:1024700094EA0C0F0AD150EA01347FF434AF95EAA4
:102480000C0F7FF425AF104619462CE795EA0C0F88
:1024900006D152EA03353FF4FDAE1046194622E755
:1024A00050EA410618BF52EA43067FF4C5AE50EA2F
:1024B00041047FF40DAF52EA43057FF4EBAE12E71F
:1024C0004FF0FF3C06E000BF4FF0010C02E000BF00
:1024D0004FF0010C4DF804CD4FEA410C7FEA6C5CE3
:1024E0004FEA430C18BF7FEA6C5C1BD001B050EA86
:1024F000410C0CBF52EA430C91EA030F02BF90EA71
:10250000020F0020704710F1000F91EA030F58BF2F
:10251000994208BF90422CBFD8176FEAE37040F091
:10252000010070474FEA410C7FEA6C5C02D150EA2F
:10253000013C07D14FEA430C7FEA6C5CD6D152EAEA
:10254000033CD3D05DF8040B704700BF84461046AF
:1025500062468C461946634600E000BF01B5FFF7AE
:10256000B7FF002848BF10F1000F01BD4DF808ED7E
:10257000FFF7F4FF0CBF012000205DF808FB00BF4F
:102580004DF808EDFFF7EAFF34BF012000205DF8A9
:1025900008FB00BF4DF808EDFFF7E0FF94BF0120F6
:1025A00000205DF808FB00BF4DF808EDFFF7CEFFF7
:1025B00094BF012000205DF808FB00BF4DF808ED36
:1025C000FFF7C4FF34BF012000205DF808FB00BF07
:1025D0004FEA410C7FEA6C5C02D150EA013C0AD11F
:1025E0004FEA430C7FEA6C5C02D152EA033C02D111
:1025F0004FF0000070474FF0010070474FEA410272
:1026000012F5001215D211D56FF47873B3EB625244
:1026100012D94FEAC12343F0004343EA505311F06B
:10262000004F23FA02F018BF404270474FF00000FD
:10263000704750EA013005D111F0004008BF6FF03B
:10264000004070474FF00000704700BF38B50546A6
:1026500000240AE005F257431A5D0A4B1A702B68F2
:10266000DB6AE1B22846984701343F2C02D82F2C70
:10267000F0D1F9E72B68DB6A95F886242F212846EC
:10268000984738BDAD19002038B50546002405E04F
:102690002B685B69A1B2284698470134B4F5806F76
:1026A000F6D338BD38B50546002405E02B685B6AD3
:1026B000E1B22846984701343F2CF7D938BD38B5E8
:1026C0000546002405E02B685B6BE1B2284698477D
:1026D00001341F2CF7D938BD38B50546202405E054
:1026E0002B685B6BE1B2284698470134222CF7D95E
:1026F00038BD90F8B83803F0010280F88420C3F3A5
:10270000400280F88520C3F3800280F88620C3F35E
:10271000001280F88720C3F3401280F88820DB097C
:1027200080F88A3090F8B93803F0010280F88F20E1
:10273000C3F3400280F88E20C3F3800280F88D201E
:10274000C3F3C00380F88C3090F8BA3803F001026C
:1027500080F89120C3F3400280F89220C3F38002F6
:1027600080F89320C3F3C00280F89420C3F30012D2
:1027700080F89520C3F3401280F89620C3F38013AD
:1027800080F8903070470000F8B50646002506E056
:10279000052D2FDC06F1640343F825000135072DD4
:1027A0002EDC06F6980353F82540164A146024F0F0
:1027B0007840154A1060E40E144B1C60FEF746F892
:1027C0004FF04851FDF71CFD1149FDF719FD074673
:1027D0002046FEF73BF83946FDF788FF0D4B1860A1
:1027E000737A002BD6D1737E002BD1D1B37E002B10
:1027F000D0D0CDE706F16403EA1E43F82200CDE70E
:10280000F8BD00BFBC190020B0190020B419002089
:10281000F8FF7F3FB819002038B50546002400E0D6
:102820000134B4F5806F09D240F2EF339C42F7D007
:102830002B68DB69A1B228469847F1E72B68DB6972
:1028400040F2EF312846984738BD000008B590F8AF
:10285000C93861F3050380F8C93880F8C8283D29D4
:1028600005D803689B68D0F8C818984708BDA1F13F
:102870003E03DBB2012B03D9034806F0B5FAF5E7B6
:10288000024806F0B1FAF1E7A0F3000868F3000887
:1028900010B5B1F5806F54D2044680F8C518C1F365
:1028A000012190F8C63823F00303194380F8C618B5
:1028B000002380F8C43803689B68D0F8C418984790
:1028C000024684F8C408D4F8C418C1F309211F488B
:1028D00006F08AFAD4F8C408C0F30920B0F5307FB6
:1028E00005D294F8C438204480F8973410BD00F520
:1028F000A073C3F309037F2B07D8A0F5307094F8B9
:10290000C438044484F85737F0E700F1C003C3F338
:1029100009037F2B07D8A0F5507094F8C4380444FD
:1029200084F8D737E2E7B0F5707FDFD3A0F5707099
:1029300004F657031918064A116094F8C4281A546B
:10294000D4E7044806F050FAD0E700BFCCF3000803
:1029500080190020E8F3000810B53F2925D8044667
:1029600090F8CD3861F3050380F8CD38002380F866
:10297000CC3803689B68D0F8CC189847024684F896
:10298000CC0894F8CD1801F03F010A4806F02CFA63
:1029900004F6570294F8CD3803F03F03D0180649E7
:1029A000086094F8CC18D15410BD044806F01CFA05
:1029B000FAE700BF18F40008841900203CF400086E
:1029C00010B58A08254B1A7001F00302244B1A60D7
:1029D00022293FD8044690F8D13861F3050380F8E6
:1029E000D138002380F8D03803685B68B0F8D0187D
:1029F000984784F8D008194B1A78072A18D894F801
:102A0000D13813F0030F02D1164B0021196004F6E0
:102A1000980404EB8201144B1960114B1B68DB0016
:102A20009840104B19680843186044F8220010BD04
:102A3000082AFCD10A4B1B6813B984F8B808F6E7DA
:102A4000012B04D0022BF2D184F8BA08EFE784F806
:102A5000B908ECE7054806F0C7F9E8E79019002047
:102A6000881900208C1900209419002068F40008AF
:102A700010B5B1F5806F4FD2C1F3090380F8C118CA
:102A8000C1F3012190F8C22822F00302114380F81B
:102A9000C218002280F8C028B3F5307F0CD2204A3B
:102AA0001360034493F8973080F8C03803689B683C
:102AB000D0F8C018984710BD03F5A072C2F3090200
:102AC0007F2A09D8A3F53073154A1360034493F89D
:102AD000573380F8C038E9E703F1C002C2F30902B6
:102AE0007F2A09D8A3F550730D4A1360034493F865
:102AF000D73380F8C038D9E7B3F5707FD6D3A3F5C4
:102B00007073074A136000F25742D41805490C60ED
:102B1000D35C80F8C038C9E7034806F065F9CAE716
:102B2000981900209C19002098F40008F0B585B091
:102B30000446C1F30742C1F307238DF80C208DF83A
:102B40000D308DF80E1011F4000F17D1134E4FF603
:102B5000FF770097022303AA8179304602F01CFA1E
:102B60000F4D009701232A46A179304602F0D0FA92
:102B7000012001F08DFC287805B0F0BD4FF6FF7301
:102B80000093032303AA8179044802F005FA012087
:102B900001F07EFC024B1878EEE700BFC019002060
:102BA000A119002000B585B0C1F30742C1F3072386
:102BB0008DF80C208DF80D308DF80E1081794FF6C0
:102BC000FF730093032303AA044802F0E5F90120F0
:102BD00001F05EFC002005B05DF804FBC019002088
:102BE00030B585B004460B0A8DF80C308DF80D1009
:102BF0003F2B18D94FF6FF730093012303AA817965
:102C00000E4802F0C9F90E4D4FF6FF7300930123F1
:102C10002A46A179094802F07BFA012001F038FC2C
:102C2000287805B030BD4FF6FF730093022303AA46
:102C30008179024802F0B0F9E5E700BFC019002031
:102C4000A219002030B585B004468DF80F104FF65C
:102C5000FF73009301230DF10F0281790C4802F0FC
:102C60009BF99DF90F30002B0FDB0A4D4FF6FF73D8
:102C7000009301232A46A179054802F049FA012070
:102C800001F006FC287805B030BD024B1878FAE751
:102C9000C0190020A019002038B50446054655F893
:102CA000973B1B699847164B1D6004F29744154BE0
:102CB0001C6000240FE02146134806F095F86420BC
:102CC00001F0E6FB0E4A1368013313600D4A1368E6
:102CD000013313600134B4F5806F0FD2084B1B68C9
:102CE0001A78084B1B681B789A42E4D021460648A4
:102CF00006F07AF8642001F0CBFBE3E738BD00BFB3
:102D0000A8190020A4190020C8F4000870B5CC4C04
:102D100004600024047144718471C47100F2574E40
:102D200080F857448EF801408EF802408EF8034038
:102D30008EF804408EF805408EF806408EF8074065
:102D40008EF808408EF809408EF80A408EF80B4045
:102D50008EF80C408EF80D408EF80E408EF80F4025
:102D60008EF810408EF811408EF812408EF8134005
:102D70008EF814408EF815408EF816408EF81740E5
:102D80008EF818408EF819408EF81A408EF81B40C5
:102D90008EF81C408EF81D408EF81E408EF81F40A5
:102DA0008EF820408EF821408EF822408EF8234085
:102DB0008EF824408EF825408EF826408EF8274065
:102DC0008EF828408EF829408EF82A408EF82B4045
:102DD0008EF82C408EF82D408EF82E408EF82F4025
:102DE0008EF830408EF831408EF832408EF8334005
:102DF0008EF834408EF835408EF836408EF83740E5
:102E00008EF838408EF839408EF83A408EF83B40C4
:102E10008EF83C408EF83D408EF83E408EF83F40A4
:102E200000F6570E80F857488EF801408EF80240A1
:102E30008EF803408EF804408EF805408EF8064068
:102E40008EF807408EF808408EF809408EF80A4048
:102E50008EF80B408EF80C408EF80D408EF80E4028
:102E60008EF80F408EF810408EF811408EF8124008
:102E70008EF813408EF814408EF815408EF81640E8
:102E80008EF817408EF818408EF819408EF81A40C8
:102E90008EF81B408EF81C408EF81D408EF81E40A8
:102EA0008EF81F408EF820408EF821408EF8224088
:102EB0008EF823408EF824408EF825408EF8264068
:102EC0008EF827408EF828408EF829408EF82A4048
:102ED0008EF82B408EF82C408EF82D408EF82E4028
:102EE0008EF82F408EF830408EF831408EF8324008
:102EF0008EF833408EF834408EF835408EF83640E8
:102F00008EF837408EF838408EF839408EF83A40C7
:102F10008EF83B408EF83C408EF83D408EF83E40A7
:102F20008EF83F40C0F89848C0F89C48C0F8A048C8
:102F3000C0F8A448C0F8A848C0F8AC48C0F8B048E9
:102F4000C0F8B44880F8B84880F8B94880F8BA4862
:102F5000012580F8BC5890F8BDE864F3000E80F8B5
:102F6000BDE85FFA8EFE64F3420E80F8BDE85FFABA
:102F70008EFE0A2666F3C70E80F8BDE8C0F8C0488A
:102F800090F8C2E8282666F3870E80F8C2E8C0F8F9
:102F9000C44890F8C6E8082666F3870E80F8C6E8AD
:102FA000C0F8C84890F8C9E86EF03F0E80F8C9E84C
:102FB0006FF05C0E80F8CAE8C0F8CC4890F8CDE815
:102FC0006EF03F0E80F8CDE84FF0230E80F8CEE88B
:102FD00080F8D04890F8D1E864F3050E80F8D1E885
:102FE0005FFA8EFE65F3871E80F8D1E8882580F8A9
:102FF000D2588A2580F8D3588C2580F8D4588E254D
:1030000080F8D5588D2580F8D658962580F8D75861
:10301000992580F8D8589C2580F8D958112580F832
:10302000DA587E2580F8DB5880F8BC4890F8BD4817
:1030300063F3420480F8BD4883710172427270BD2F
:1030400000F6000810B584B0044600238DF80F3058
:10305000817949081E4805F0C7FEB4F8DA381B0A22
:103060008DF80E304FF6FF73009301230DF10E0221
:10307000A179184801F090FFC0B19DF80F101129F7
:103080001FD0154805F0B0FE9DF80F10134805F04D
:10309000ABFE134805F0A8FE124B00221A7012482E
:1030A00005F0A2FE0F4B187804B010BD4FF6FF7369
:1030B000009301230DF10F02A179064802F028F8D0
:1030C000DBE70A4805F090FE064B01221A70E6E79E
:1030D00014F50008C019002060F500087CF5000810
:1030E00084F50008AC19002098F500083CF50008AC
:1030F00008B5882914D08A2919D08C291ED08E2988
:1031000023D08D2928D096292DD0992932D09C29D9
:1031100037D103681B6890F8D9189847012005E05B
:1031200003681B6890F8D2189847012008BD03680F
:103130001B6890F8D31898470120F7E703681B68CD
:1031400090F8D41898470120F0E703681B6890F8BE
:10315000D51898470120E9E703681B6890F8D6184E
:1031600098470120E2E703681B6890F8D718984752
:103170000120DBE703681B6890F8D8189847012006
:10318000D4E70020D2E7000010B50446074805F058
:103190002BFE074805F028FE23689B6920469847C8
:1031A000044805F021FE0123E37110BDE4F300089B
:1031B000ACF50008C8F500082DE9F0410546037A92
:1031C000002B4ED1437AB3B9784B794A9A6040F2DA
:1031D000F9225A6000221A80764B77499960402183
:1031E00059604FF470711980744B9A605A604FF4B3
:1031F00048721A8037E0012B1AD0022B33D16B4B67
:103200006F4A9A604FF432725A6000221A80694BFA
:103210006C4A9A6040225A604FF470721A80674B71
:10322000694A9A609B225A604FF448721A801AE0E9
:103230005E4B634A9A604FF432725A6000221A80E1
:103240005C4B624A9A6040225A604FF470721A8056
:103250005A4B5F4A9A609B225A604FF448721A8018
:1032600001E0012B2CD0554B1C88A4F53074A4B27E
:10327000584B1C80C4F55076B6B2574B1E804B4B52
:103280005F68B7F5307F6AD83A46996805F19700CC
:10329000FEF720FC494B5F684FB1B74272D804F586
:1032A000547028443A4699680730FEF713FC414BA6
:1032B0005A68996805F25740FEF70CFCBDE8F081AA
:1032C000437AB3B9394B454A9A604FF40D725A604C
:1032D00000221A80374B42499960402159604FF4CF
:1032E00070711980354B9A605A604FF448721A8099
:1032F000B9E7012B1AD0022BB5D12C4B394A9A6071
:103300004FF429725A6000221A802A4B364A9A607A
:1033100040225A604FF470721A80284B334A9A60E8
:103320009B225A604FF448721A809CE71F4B2D4A2B
:103330009A604FF429725A6000221A801D4B2C4A61
:103340009A6040225A604FF470721A801B4B294ACF
:103350009A609B225A604FF448721A8083E7134B9D
:10336000D3F808804FF43072414605F19700FEF71C
:10337000B1FBA7F5307208F5307105F25730FEF752
:10338000A9FB87E704F554742C440C4BD3F8088050
:1033900032464146E01DFEF79DFBBA1B08EB0601D5
:1033A00005F2D730FEF796FB81E700BF74190020C5
:1033B00080040020681900207C0700205819002094
:1033C000DC00002040040020A40300209C0000201A
:1033D000000000206419002054190020180C00205F
:1033E0004C0E002098080020D80B00203C0B002039
:1033F00058080020BC07002038B504460D46582266
:103400000C30FEF767FB2B789B0994F8572463F385
:10341000871284F857242A7894F8573462F301030A
:1034200084F857342B78C3F3830394F8572463F359
:10343000850284F85724EA7894F8583462F3C71365
:1034400084F85834AA78DBB262F3451384F8583410
:103450006A78DBB262F3020384F85834AA7994F8EC
:10346000593462F3051384F85934AB79C3F38103FB
:1034700094F8592463F3871284F859246A7994F8EC
:10348000593462F3C30384F859342A79DBB262F306
:10349000410384F859342A7B94F85A3462F3861332
:1034A00084F85A34EA7ADBB262F3451384F85A346A
:1034B000AA7ADBB262F3C40384F85A346A7ADBB2C4
:1034C00062F3820384F85A342A7ADBB262F341034E
:1034D00084F85A34EA79DBB262F3000384F85A3490
:1034E0006A7C94F85B3462F3C71384F85B342A7CFB
:1034F000DBB262F3451384F85B34EA7BDBB262F340
:10350000041384F85B34AA7BDBB262F3410384F8D2
:103510005B346A7BDBB262F3000384F85B34EA7DE0
:1035200094F85C3462F3C71384F85C34AA7DDBB290
:1035300062F3451384F85C346A7DDBB262F3C30343
:1035400084F85C342A7DDBB262F3820384F85C3455
:10355000EA7CDBB262F3410384F85C34AA7CDBB220
:1035600062F3000384F85C342A7E94F85D3462F3DD
:10357000050384F85D346B8B84F85E346B8BC3F386
:10358000042394F85F2463F3040284F85F24EB6956
:1035900084F86034EB69C3F30E2384F86134EB697B
:1035A000C3F3064394F8622463F3060284F86224AA
:1035B0002B8C84F863342B8CC3F3012394F864249C
:1035C00063F3010284F8642495F82130C3F34113B6
:1035D000D2B263F3871284F8642495F82130C3F3E0
:1035E0008203D2B263F3840284F864246B8C84F87F
:1035F00065346B8CC3F3012394F8662463F30102F2
:1036000084F8662495F82330C3F38303D2B263F3BE
:10361000850284F86624AB8C84F86734AB8CC3F3E2
:10362000012394F8682463F3010284F8682495F870
:103630002530C3F38403D2B263F3860284F868248E
:1036400095F8282094F8693462F3C71384F8693434
:1036500095F82720DBB262F3861384F8693495F875
:103660002620DBB262F3050384F8693495F829302B
:103670009B0994F86A2463F3871284F86A2495F806
:103680002930C3F30113D2B263F3051284F86A241C
:1036900095F8292094F86A3462F3030384F86A34B5
:1036A00095F82B2094F86B3462F3C71384F86B34CD
:1036B00095F82A20DBB262F3020384F86B34AB8DF9
:1036C00084F86C34AB8DC3F3012394F86D2463F359
:1036D000010284F86D2495F82D30C3F30213D2B2A1
:1036E00063F3061284F86D2495F82D30C3F381033B
:1036F000D2B263F3830284F86D2495F8322094F8F3
:103700006E3462F3871384F86E3495F83120DBB29F
:1037100062F3451384F86E3495F83020DBB262F31F
:10372000041384F86E3495F82F20DBB262F3820321
:1037300084F86E3495F82E20DBB262F3010384F82E
:103740006E3495F83530C3F3810394F8722463F333
:10375000871284F8722495F8352094F8723462F355
:10376000830384F8723495F83320DBB262F30003EC
:1037700084F8723495F83420DBB262F3410384F8A4
:10378000723495F8363084F8733495F837301B0965
:1037900094F8742463F3071284F8742495F837209E
:1037A00094F8743462F3030384F8743495F83A207F
:1037B00094F8753462F3C71384F8753495F839209A
:1037C000DBB262F3861384F8753495F83820DBB2E7
:1037D00062F3020384F8753495F83F2094F8763448
:1037E00062F3C71384F8763495F83E20DBB262F3B7
:1037F000861384F8763495F83D20DBB262F3051326
:1038000084F8763495F83C20DBB262F3C30384F885
:10381000763495F83B20DBB262F3020384F8763409
:1038200095F84030C3F3011394F8772463F305123D
:1038300084F8772495F84030C3F3C003D2B263F321
:10384000C30284F8772495F8402094F8773462F323
:10385000020384F8773495F841301B0994F87824F2
:1038600063F3071284F8782495F8412094F87834AB
:1038700062F3030384F8783495F8452094F879349A
:1038800062F3C71384F8793495F84420DBB262F30D
:10389000861384F8793495F84320DBB262F345133C
:1038A00084F8793495F84220DBB262F3041384F88B
:1038B000793495F8463084F87A3495F8473084F8AE
:1038C0007D3495F8482094F87E3462F3030384F83D
:1038D0007E3495F848301B0994F87E2463F3071270
:1038E00084F87E2495F8493084F87F3495F84A307E
:1038F00084F8803495F8502094F8813462F386136C
:1039000084F8813495F84F20DBB262F3041384F815
:10391000813495F84E20DBB262F3C30384F881341E
:1039200095F84D20DBB262F3820384F8813495F878
:103930004C20DBB262F3410384F8813495F84B20CC
:10394000DBB262F3000384F8813495F8512094F8D7
:10395000863462F3000384F8863495F8522094F894
:10396000873462F3030384F88734B5F8543084F85D
:103970008834B5F854301B0A84F8893495F85630E9
:1039800084F88D3423689B6A2046984738BD10B56B
:10399000044691F857344FEA931C0A7B6CF3871264
:1039A0000A73D2B263F301020A73C3F38303D2B280
:1039B00063F385020A7391F85834DA09CA73C3F3C2
:1039C00040128A734A7B63F302024A7391F85934B6
:1039D000C3F3011C8A7C6CF301028A744FEA931CC6
:1039E000D2B26CF383028A74C3F3C0024A74C3F385
:1039F00040030B7491F85A34C3F380120A76C3F370
:103A00004012CA75C3F3C10C8A7D6CF301028A753A
:103A1000C3F380024A75C3F340020A7503F0010341
:103A2000CB7491F85B34DA094A77C3F340120A7712
:103A3000C3F30012CA76C3F340028A7603F001038F
:103A40004B7691F85C34DA0981F82320C3F34012F5
:103A500081F82220C3F3C00281F82120C3F3800241
:103A600081F82020C3F34002CA7703F001038B776B
:103A700091F85D2491F8243062F3050381F8243035
:103A800091F85F3403F01F0291F85E3443EA022399
:103A9000CA8C63F30C02CA8491F8623403F07F028B
:103AA00091F861341B0243EA024391F86024134306
:103AB0008A6A63F316028A6291F8643403F0030C95
:103AC00091F8632442EA0C22B1F82CC062F3090C8D
:103AD000A1F82CC04FEA931C91F82D206CF34612EC
:103AE00081F82D20C3F38203D2B263F3840281F8FC
:103AF0002D2091F8663403F0030C91F8652442EA16
:103B00000C22B1F82EC062F3090CA1F82EC0C3F349
:103B1000830391F82F2063F3850281F82F2091F819
:103B2000683403F0030C91F8672442EA0C22B1F8E0
:103B300030C062F3090CA1F830C0C3F3840391F8DC
:103B4000312063F3860281F8312091F86934DA0973
:103B500081F83420C3F3801281F8332091F83220A9
:103B600063F3050281F8322091F86A344FEA931C1E
:103B700091F835206CF3871281F83520C3F3011CCE
:103B8000D2B26CF3051281F83520D2B263F303028E
:103B900081F8352091F86B24D30981F8373091F8FA
:103BA000363062F3020381F8363091F86D3403F059
:103BB000030C91F86C2442EA0C22B1F838C062F38D
:103BC000090CA1F838C0C3F3021C91F839206CF33A
:103BD000061281F83920C3F38103D2B263F3830262
:103BE00081F8392091F86E344FEA931C91F83E2009
:103BF0006CF3010281F83E20C3F3401281F83D20AE
:103C0000C3F3001281F83C20C3F3800281F83B200B
:103C100091F83A2063F3010281F83A2091F8723466
:103C20004FEA931C91F841206CF3830281F8412004
:103C3000C3F3810CD2B26CF3010281F8412003F08E
:103C4000010281F83F20C3F3400381F8403091F82E
:103C5000733481F8423091F874244FEA121C91F8C1
:103C600043306CF3071381F84330DBB262F3030394
:103C700081F8433091F87534DA0981F84620C3F3AE
:103C8000801281F8452091F8442063F3020281F804
:103C9000442091F87634DA0981F84B20C3F380127E
:103CA00081F84A20C3F3011C91F849206CF301020A
:103CB00081F84920C3F3C00281F8482091F84720D9
:103CC00063F3020281F8472091F87734C3F3011CB3
:103CD00091F84C206CF3051281F84C20C3F3C00C12
:103CE000D2B26CF3C30281F84C20D2B263F3020269
:103CF00081F84C2091F878244FEA121C91F84D304D
:103D00006CF3071381F84D30DBB262F3030381F8E3
:103D10004D3091F87934DA0981F85120C3F38012DB
:103D200081F85020C3F3401281F84F20C3F30013F1
:103D300081F84E3091F87A3481F8523091F87D3420
:103D400081F8533091F87E3491F8542063F30302E4
:103D500081F854201B09D2B263F3071281F8542072
:103D600091F87F3481F8553091F8803481F85630DD
:103D700091F88134C3F3801281F85C20C3F3001200
:103D800081F85B20C3F3C00281F85A20C3F380029C
:103D900081F85920C3F3400281F8582003F0010351
:103DA00081F8573091F8863403F0010381F85D30D3
:103DB00091F8872491F85E3062F3030381F85E3056
:103DC00091F8892491F8883443EA0223A1F86030FD
:103DD00091F88D3481F8623058220C31FDF77AFE6B
:103DE000204610BD70B588B0002403940494059457
:103DF000069407940094214B1A6B42F080021A63D8
:103E00001A6B02F080020092009A01941A6B42F041
:103E100001021A631A6B02F001020192019A0294E4
:103E20001A6B42F002021A631B6B03F00203029347
:103E3000029B134E22462021304600F0E7FC20234F
:103E40000393012504950594069403A9304600F0D8
:103E5000FDFB102303934FF488130493059503A9E6
:103E6000084800F0F3FB224621460A2000F036FB0A
:103E70000A2000F06BFB08B070BD00BF00380240A4
:103E80000000024000040240012800D070474FF6B5
:103E9000FF739942FAD100B597B058220649684697
:103EA000FDF718FE5023002201210448FEF72EFFE3
:103EB00017B05DF804FB00BF581A0020B01A0020AC
:103EC000102800D07047044B01221A70034A13785F
:103ED00001331370F6E700BF8D2300208C230020F0
:103EE000704772B6FEE7000008B50A480A4B036047
:103EF0000A4B436000238360C3604FF48042026139
:103F000043618361C361036200F068FF00B908BDCB
:103F1000FFF7E7FFC019002000540040A086010011
:103F200008B50A480A4B03604FF4E13343600023AD
:103F30008360C36003610C2242618361C36102F04C
:103F40003FFE00B908BDFFF7CCFF00BF141A0020E8
:103F50000010014000B595B03022002108A805F0FE
:103F60005DFD002303930493059306930793019348
:103F70001F4A116C41F080511164126C02F08052A2
:103F80000192019A02931B4B1A6842F440421A6054
:103F90001B6803F440430293029B012308934FF4F0
:103FA0008033099302230E934FF480020F9219225B
:103FB0001092C022119212930423139308A802F0C6
:103FC000F5F988B90F230393022304930023059383
:103FD0004FF4805306930793032103A802F034FCA7
:103FE00020B915B05DF804FBFFF77BFFFFF779FF01
:103FF000003802400070004030B587B000F01CFA75
:10400000FFF7A8FFFFF7EEFEFFF76EFFFFF788FF51
:1040100004F07CFE4FF47A7000F03AFA1E4B1A78E6
:104020001E491F4800F085F84FF6FF7302930423E2
:10403000019305AB0093012344225021194801F05C
:10404000DBF9059820F07845C00EFCF7FFFB04462D
:104050002846FCF7FBFB4FF04851FCF7D1F812491A
:10406000FCF7CEF801462046FCF740FBFCF7E0FAEF
:1040700002460B460D4804F0B7FE0A2000F008FA8D
:104080000B4B1B78002BCFD020210A4800F0C4FB3B
:10409000074B00221A70C7E78C0E0020581A002028
:1040A000B01A0020C0190020F8FF7F3F48F6000832
:1040B0008D2300200000024008B54FF6FF7101205B
:1040C000FFF7E2FE08BD30B597B005460C46014645
:1040D0006846FFF75CFC582269462046FDF7FAFC6B
:1040E00001236374E373217E362262F30501217696
:1040F000E1694FF4FA7060F31601E16194F8211060
:104100006FF3840184F8211094F8251063F386017D
:1041100084F82510002384F8273094F8263062F3C1
:10412000050384F8263021462846FFF765F917B0C5
:1041300030BD38B504460D468821FEF7D9FF8A21E7
:104140002046FEF7D5FF2046FEF77CFF2046FFF70E
:1041500033F82046FFF718F8002229462046FFF7DB
:10416000B2FF8C212046FEF7C3FF38BD82B000218C
:1041700000910B4B5A6C42F480425A645A6C02F420
:1041800080420092009A01911A6C42F080521A64A7
:104190001B6C03F080530193019B02B0704700BF7A
:1041A0000038024030B589B000230393049305938F
:1041B000069307930268144B9A4201D009B030BDB0
:1041C00000250195114C236B43F002032363236BFD
:1041D00003F002030193019BC02303931223049372
:1041E000032306930423079303A9094800F02EFA3A
:1041F0000295236C43F400132364236C03F400132F
:104200000293029BDAE700BF0054004000380240EE
:104210000004024010B588B0002303930493059373
:1042200006930793026803F1804303F588339A42AB
:1042300001D008B010BD0024019403F594335A6CEA
:1042400042F010025A645A6C02F010020192019A74
:1042500002941A6B42F001021A631B6B03F0010314
:104260000293029B4FF4C06303930223049303233E
:1042700006930723079303A9054800F0E7F92246B0
:104280002146252000F02AF9252000F05FF9D0E72B
:1042900000000240FEE7FEE7FEE7FEE7FEE77047AC
:1042A0007047704708B500F0E1F808BD08B5102068
:1042B00000F0BCFA08BD000008B5024802F038FD65
:1042C00008BD00BF141A002008B5024801F062FDC5
:1042D00008BD00BF783800200120704708B505F000
:1042E000BBF8162303604FF0FF3008BD08B54FF050
:1042F000FF31FFF7F3FFFEE770B50C4616460025C9
:1043000006E0AFF30080214601F8010B01350C46B1
:10431000B542F6DB304670BD70B50C46164600253A
:1043200004E014F8010BAFF300800135B542F8DB6F
:10433000304670BD4FF0FF3070474FF400534B6074
:1043400000207047012070470020704710B50346D9
:104350000C4A0D490D48006840B10C480068034400
:10436000521A934206D8094A136010BD0748084CF8
:104370000460F2E705F070F80C2303604FF0FF30A3
:10438000F3E700BF0000022000040000902300209B
:10439000F03F002070470000DFF834D00D480E4990
:1043A0000E4A002302E0D458C4500433C4188C428F
:1043B000F9D30B4A0B4C002301E013600432A242F4
:1043C000FBD3FFF7E7FF05F04DF8FFF715FE704749
:1043D00000000220000000203819002088FD00089D
:1043E00038190020EC3F0020FEE7000010B504461D
:1043F0000E4B18784FF47A73B3FBF0F30C4A106845
:10440000B0FBF3F000F0B0F868B90F2C01D901202F
:104410000AE0002221464FF0FF3000F05FF8054B24
:104420001C60002000E0012010BD00BF940E0020A1
:10443000900E0020980E002008B50B4B1A6842F42D
:1044400000721A601A6842F480621A601A6842F4B4
:1044500080721A60032000F02FF80F20FFF7C6FFCC
:10446000FFF784FE002008BD003C0240034A1168AB
:10447000034B1B780B441360704700BF942300204C
:10448000940E0020014B1868704700BF9423002051
:1044900038B50446FFF7F6FF0546B4F1FF3F02D0FA
:1044A000044B1B781C44FFF7EDFF401BA042FAD3DE
:1044B00038BD00BF940E0020074AD36823F4E063A0
:1044C0001B041B0C000200F4E060034343F0BF63D5
:1044D00043F40033D360704700ED00E000B5194BA2
:1044E000DB68C3F30223C3F1070CBCF1040F28BF40
:1044F0004FF0040C03F1040EBEF1060F18D9033B74
:104500004FF0FF3E0EFA0CFC21EA0C0199400EFA26
:1045100003F322EA0303194300280BDB0901C9B2A4
:1045200000F1604000F5614080F800135DF804FB85
:104530000023E5E700F00F000901C9B2024B19544E
:10454000F4E700BF00ED00E014ED00E0002807DB19
:1045500000F01F02400901239340024A42F8203034
:10456000704700BF00E100E00138B0F1807F0BD25E
:104570004FF0E0235861054AF02182F82310002013
:10458000986107221A6170470120704700ED00E032
:1045900070B50446866DFFF775FF94F83530DBB2D1
:1045A000022B06D080236365002384F83430012079
:1045B00070BD05462268136823F016031360226855
:1045C000536923F080035361236CE3B122681368BD
:1045D00023F0080313602268136823F001031360BB
:1045E00023681B6813F0010F11D0FFF74BFF431B2B
:1045F000052BF5D920236365032084F835000023BB
:1046000084F83430D4E7A36C002BDFD1E3E7E26D0C
:104610003F239340B360012384F83530002084F8B1
:104620003400C5E790F83530DBB2022B03D080238D
:10463000436501207047052380F835300268136810
:1046400023F00103136000207047000000230F2BAC
:1046500000F2D28070B582B060E085685E0003240D
:10466000B44025EA0405CC68B4402C438460456816
:1046700025EA02054C68C4F300129A402A434260BE
:104680005AE0DC08083450F8246003F00702950073
:104690000F22AA4026EA020E0A69AA4042EA0E0246
:1046A00040F824205CE0042200E0002202FA0EF22E
:1046B0002A430234514D45F82420514A94686FEA48
:1046C0000C0224EA0C054E6816F4801F01D04CEA57
:1046D00004054B4CA560E46802EA04054E6816F434
:1046E000001F01D04CEA0405454CE560646802EA0D
:1046F00004054E6816F4003F01D04CEA0405404C16
:104700006560246822404D6815F4803F01D04CEA72
:1047100004023B4C226001330F2B6BD801229A40DC
:104720000C6804EA020C32EA0404F4D14C6804F088
:104730000304013C012C90D94A6802F00302032AC9
:1047400009D0C4685D000322AA4024EA02048A68F2
:10475000AA402243C2604A6802F00302022A90D0B3
:1047600004684FEA430E032202FA0EF224EA02041E
:104770004A6802F0030202FA0EF2224302604A681B
:1047800012F4403FC7D0002201921E4A546C44F4F8
:1047900080445464526C02F480420192019A9C0855
:1047A000A51C164A52F8255003F003024FEA820E68
:1047B0000F2202FA0EF225EA0205134A90423FF454
:1047C00074AF02F5806290420ED002F58062904292
:1047D0000CD002F5806290420AD002F580629042CD
:1047E0003FF461AF072261E701225FE702225DE744
:1047F00003225BE702B070BD704700BF0038014084
:10480000003C014000380240000002400AB18161D2
:104810007047090481617047436901EA030221EA94
:10482000030141EA024181617047000008B5054B70
:104830005B69034200D108BD024B5861FFF740FBA2
:10484000F9E700BF003C014003685A6912F4806F29
:1048500001D1002070476FF480625A610023036326
:10486000202280F83D2080F83E30026C42F00402A5
:10487000026480F83C30012070472DE9F041074682
:104880000D4690461E4624E0FFF7FCFD069BC01A2D
:10489000B04200D8EEB900233B63202287F83D20C8
:1048A00087F83E303A6C42F020023A6487F83C3098
:1048B00001201EE03B689C6925EA040C1FFA8CFC71
:1048C000BCFA8CFC4FEA5C1CE04511D1B6F1FF3F0D
:1048D000DAD1C5F30743012BECD13B685B6925EACC
:1048E000030C1FFA8CFCBCFA8CFC4FEA5C1CEBE757
:1048F0000020BDE8F0812DE9F04105460E4617463F
:1049000098463DE01A6842F400721A602B686FF412
:1049100080625A6100232B63202285F83D2085F8B0
:104920003E302A6C42F004022A6485F83C300120B3
:1049300034E0FFF7A7FDA0EB0800B84200D8FFB9AC
:1049400000232B63202285F83D2085F83E302A6C19
:1049500042F020022A6485F83C3001201EE02B68DA
:104960009C6926EA0404A4B2003C18BF0124A4B147
:104970002B685A6912F4806FC4D1B7F1FF3FD8D1C8
:10498000C6F30743012BEAD12B685C6926EA0404CD
:10499000A4B2003C18BF0124E9E70020BDE8F08183
:1049A000F0B583B004460D4616461F46C36A082B71
:1049B0000DD0012B0BD013F5803F08D0036B122BC9
:1049C0000AD10268136843F48073136004E022681C
:1049D000136843F4807313600097334600224FF04E
:1049E00001112046FFF749FF80B92369B3F5804FD5
:1049F00016D1236805F0FE051D613B46324613497A
:104A00002046FFF778FFF8B903B0F0BD23681B68B4
:104A100013F4807F02D04FF4007323640320F3E784
:104A2000EB11226803F0060343F0F00313613B46E9
:104A3000324607492046FFF75EFF18B92368EDB2FA
:104A40001D61DAE70120DFE70120DDE70200010058
:104A5000080001002DE9F04184B004460D461646D9
:104A60001F46C26A01680B6843F480630B60082A22
:104A70000DD0012A0BD012F5803F08D0036B112B0B
:104A80000AD10268136843F48073136004E022685B
:104A9000136843F4807313600097334600224FF08D
:104AA00001112046FFF7E9FE98B92369B3F5804F5D
:104AB00019D1236845F00105EDB21D613B46324630
:104AC0002A492046FFF717FF00284CD104B0BDE863
:104AD000F08123681B6813F4807F02D04FF40073C9
:104AE00023640320F2E74FEAE51808F0060823687C
:104AF00048F0F0021A613B4632461D492046FFF756
:104B0000FAFE08B10120E1E72368EDB21D613B46E2
:104B1000324616492046FFF7EEFE08B10120D5E7E0
:104B200000220392236859690391996903910399BB
:104B3000196841F480711960009733464FF00111F4
:104B40002046FFF79AFE20B9226848F0F10313616E
:104B5000B4E723681B6813F4807F02D04FF400731E
:104B600023640320B2E70120B0E700BF0200010088
:104B70000800010070B504460D46164623685B69BF
:104B800013F0800F1CD12046FFF75EFED0B9B5F1BF
:104B9000FF3FF3D0FFF776FC801BA84201D8002D21
:104BA000ECD100232363202284F83D2084F83E309A
:104BB000226C42F02002226484F83C30012000E0A4
:104BC000002070BD0120FCE72DE9F04784B00446C9
:104BD0000D46164699460C9FDDF83480026813682E
:104BE00043F4806313600368196841F480711960AD
:104BF000CDF800803B4600224FF00111FFF73DFE4B
:104C000070B95FFA85FA236805F0FE051D61434619
:104C10003A4641492046FFF76EFE68B1012008E0A0
:104C200023681B6813F4807F02D04FF40073236461
:104C3000032004B0BDE8F0870023039323685A697A
:104C400003929B690393039B424639462046FFF734
:104C500091FF80B9B9F1010F18D12368F6B21E6136
:104C6000424639462046FFF785FF68B3236C042B84
:104C700024D00120DDE7236C042B01D00120D8E7EC
:104C80002268136843F400731360F7E72368320A5D
:104C90001A61424639462046FFF76CFF18B923686F
:104CA000F6B21E61DCE7236C042B01D00120C0E7C3
:104CB0002268136843F400731360F7E722681368EF
:104CC00043F400731360D4E72268136843F48073DD
:104CD0001360CDF800803B4600224FF001112046C2
:104CE000FFF7CBFD68B922684AF001031361434620
:104CF0003A4609492046FFF7FEFD002899D00120D9
:104D000097E723681B6813F4807F02D04FF4007389
:104D1000236403208DE700BF0200010070B5044644
:104D20000D46164623685B6913F0040F1CD120461C
:104D3000FFF78AFDD0B9B5F1FF3FF3D0FFF7A2FB33
:104D4000801BA84201D8002DECD100232363202230
:104D500084F83D2084F83E30226C42F02002226428
:104D600084F83C30012000E0002070BD0120FCE709
:104D700070B505460C4616462B68596911F0400F70
:104D800029D1596911F0100F15D1FFF77BFB801B5A
:104D9000A04201D8002CEFD100232B63202285F8FC
:104DA0003D2085F83E302A6C42F020022A6485F8C6
:104DB0003C30012070BD6FF010025A6100232B635C
:104DC000202285F83D2085F83E302A6C2A6485F83B
:104DD0003C300120EEE70020ECE70000002800F066
:104DE000CC8070B5044690F83D30002B77D024235A
:104DF00084F83D302268136823F0010313602268B1
:104E0000136843F4004313602268136823F40043DB
:104E1000136001F0CFFD62685A4B9A4264D85A4B36
:104E200098428CBF00230123002B40F0A8805749F3
:104E3000A1FB00318B0C25686A6822F03F0242EA30
:104E400091426A6021680A6A22F03F0266684D4D0D
:104E5000AE424FD8013313430B622168CA6922F472
:104E60004F4222F0FF026668464B9E424CD8431EDA
:104E70007600B3FBF6F3013340F6FC70034278D0C2
:104E8000C3F30B031343CB6121680B6823F0C0030A
:104E9000E269206A024313430B6021688B6823F4A4
:104EA000034323F0FF032269E068024313438B604E
:104EB0002168CB6823F0FF036269A06902431343B2
:104EC000CB602268136843F0010313600020206464
:104ED000202384F83D30206384F83E0070BD80F8C4
:104EE0003C30FFF75FF982E7294B98428CBF0023E3
:104EF000012399E74FF4967505FB03F3254DA5FBB8
:104F000003539B090133A6E7A368BBB9451E06EB13
:104F1000460CB5FBFCF50135C5F30B05B5FA85F577
:104F20006D0945BBC3B9013806EB4603B0FBF3F38B
:104F30000133C3F30B0343F40043A3E7451E06EB21
:104F4000860C0CEB8C0CB5FBFCF50135C5F30B05A1
:104F5000B5FA85F56D09E4E7013806EB860303EB46
:104F60008303B0FBF3F30133C3F30B0343F4404378
:104F700088E7042386E7012384E7012070470120A6
:104F8000ACE700BFA08601007F841E0083DE1B43C8
:104F9000FF083D00D34D62102DE9F04385B0044673
:104FA0000F46914698460C9EFFF76CFA054694F81A
:104FB0003D00C0B2202804D00227384605B0BDE825
:104FC000F0830095192301224F492046FFF755FC35
:104FD000002840F0928094F83C30012B00F08F8044
:104FE000012384F83C3023681A6812F0010F03D1C2
:104FF0001A6842F001021A602268136823F4006301
:105000001360212384F83D30102384F83E300023C0
:105010002364C4F82490A4F82A80638D23853B4B35
:10502000E3622B46324639462046FFF7B9FC074675
:10503000002866D10023039323685A6903929B6971
:105040000393039B11E0236C042B01D00127B4E7E9
:105050002268136843F400731360F7E72A46314669
:105060002046FFF75BFE00282ED1238D002B36D083
:105070002A4631462046FFF77DFD0028E3D1626ACB
:10508000236812781A61606A431C6362618D89B279
:10509000013989B26185238D013B9BB2238522684A
:1050A000516911F0040FD9D0002BD7D04378136188
:1050B000636A01336362638D9BB2013B9BB263857C
:1050C000238D013B2385C9E7236C042B01D00127E5
:1050D00073E72268136843F400731360F7E72268EC
:1050E000136843F400731360202384F83D300023D9
:1050F00084F83E3084F83C305FE702275DE7022702
:105100005BE7012759E700BF020010000000FFFF26
:105110002DE9F04387B004460F46914698460E9E0F
:10512000FFF7B0F9054694F83D00C0B2202804D03E
:105130000227384607B0BDE8F08300951923012205
:1051400089492046FFF799FB002840F0458194F8F3
:105150003C30012B00F04281012384F83C3023686D
:105160001A6812F0010F03D11A6842F001021A60A6
:105170002268136823F400631360222384F83D300F
:10518000102384F83E3000232364C4F82490A4F84C
:105190002A80638D2385754BE3622B463246394660
:1051A0002046FFF757FC0746002840F01981238D61
:1051B0005BB9029323685A6902929A690292029A31
:1051C0001A6842F400721A607AE0012B0FD0022BA9
:1051D0001FD02268136843F4806313600023059393
:1051E00023685A6905929B690593059B68E02268CC
:1051F000136823F4806313600023039323685A69C0
:1052000003929A690392039A1A6842F400721A6030
:1052100056E02268136823F48063136022681368E1
:1052200043F4006313600023049323685A690492D3
:105230009B690493049B43E02A4631462046FFF7CE
:1052400097FD002840F0CE8023681A69636A1A70BF
:10525000636A01336362238D013B2385638D9BB2B7
:10526000013B9BB263852BE0009533460022404909
:105270002046FFF702FB002840F0B6802268136842
:1052800043F40073136023681A69636A1A70626AD0
:10529000531C6362238D013B2385638D9BB2013BCD
:1052A0009BB2638523681B695370636A0133636231
:1052B000238D013B2385638D9BB2013B9BB26385AC
:1052C000218D00297FD0032954D80129B4D0022987
:1052D000CAD000953346002225492046FFF7CDFA73
:1052E000002840F083802268136823F480631360F1
:1052F00023681A69636A1A70636A01336362238DD3
:10530000013B2385618D89B2013989B261850095A0
:105310003346002216492046FFF7AFFA002867D12E
:105320002268136843F40073136023681A69636A80
:105330001A70626A531C6362238D013B2385638D5F
:105340009BB2013B9BB2638523681B695370636A00
:1053500001336362238D013B2385638D9BB2013B47
:105360009BB26385ACE700BF020010000000FFFFA6
:10537000040001002A4631462046FFF7F9FC0028C8
:1053800038D123681A69636A1A70626A531C6362AF
:10539000238D013B2385638D9BB2013B9BB26385CB
:1053A0002368596911F0040F8AD01B695370636A2E
:1053B00001336362238D013B2385638D9BB2013BE7
:1053C0009BB263857CE7202384F83D30002384F87A
:1053D0003E3084F83C30ACE60227AAE60227A8E675
:1053E0000127A6E60127A4E60127A2E60127A0E6F9
:1053F00001279EE601279CE62DE9F04387B004468D
:105400000F4690469946109EFFF73CF8054694F8E3
:105410003D00C0B2202804D00227384607B0BDE8BE
:10542000F08300951923012288492046FFF725FAC9
:10543000002840F0438194F83C30012B00F040817B
:10544000012384F83C3023681A6812F0010F03D15D
:105450001A6842F001021A602268136823F400639C
:105460001360222384F83D30402384F83E3000232B
:1054700023640E9B6362BDF83C306385638D238596
:10548000734BE362019500964B46424639462046EF
:10549000FFF79AFB0746002840F01481238D5BB983
:1054A000029323685A6902929A690292029A1A68D0
:1054B00042F400721A6075E0012B0AD0022B1AD058
:1054C0000023059323685A6905929B690593059B00
:1054D00068E02268136823F4806313600023039359
:1054E00023685A6903929A690392039A1A6842F4EC
:1054F00000721A6056E02268136823F48063136018
:105500002268136843F40063136000230493236844
:105510005A6904929B690493049B43E02A463146EE
:105520002046FFF725FC002840F0CE8023681A694A
:10553000636A1A70636A01336362238D013B2385BA
:10554000638D9BB2013B9BB263852BE00095334694
:10555000002240492046FFF790F9002840F0B6802D
:105560002268136843F40073136023681A69636A3E
:105570001A70626A531C6362238D013B2385638D1D
:105580009BB2013B9BB2638523681B695370636ABE
:1055900001336362238D013B2385638D9BB2013B05
:1055A0009BB26385238D002B7FD0032B54D8012B16
:1055B000B4D0022BCAD0009533460022254920469C
:1055C000FFF75BF9002840F083802268136823F41A
:1055D0008063136023681A69636A1A70636A01330F
:1055E0006362238D013B2385638D9BB2013B9BB29C
:1055F000638500953346002216492046FFF73DF9A2
:10560000002867D12268136843F40073136023688D
:105610001A69636A1A70626A531C6362238D013BC4
:105620002385638D9BB2013B9BB2638523681B6915
:105630005370636A01336362238D013B2385638D5D
:105640009BB2013B9BB26385ACE700BF0200100038
:105650000000FFFF040001002A4631462046FFF704
:1056600087FB002838D123681A69636A1A70626A56
:10567000531C6362238D013B2385638D9BB2013BE9
:105680009BB263852368596911F0040F8AD01B69A6
:105690005370636A01336362238D013B2385638DFD
:1056A0009BB2013B9BB263857CE7202384F83D30AD
:1056B000002384F83E3084F83C30AEE60227ACE6A6
:1056C0000227AAE60127A8E60127A6E60127A4E605
:1056D0000127A2E60127A0E601279EE62DE9F04377
:1056E00083B0D0F8008001EBC10300EB8303DA6DD7
:1056F0005B6D9A4254D807460C469B1A01EBC102D7
:1057000000EB8202926C9A4200D31A4602F103091E
:105710004FEA990915E006F103094FEA990904EBEC
:10572000C40507EB8505E96C3B7C0093B3B2E2B29C
:10573000404602F009F8EB6C3344EB64EB6D334404
:10574000EB6508EB441303F510639B699BB24B4573
:1057500012D304EBC40207EB8202D16D536D994260
:105760000AD24BB15B1A04EBC40207EB8202966CBF
:105770009E42D0D31E46CEE704EBC40007EB800761
:105780007A6DFB6D9A420FD804F00F040123A340F9
:10579000D8F8344824EA0304C8F83448002000E06C
:1057A000012003B0BDE8F0830020FAE770B58AB0AD
:1057B000002800F090800546046890F8BD343BB3A3
:1057C000032385F8BD34E36B13F4807F01D10023FC
:1057D0002B61286801F0D2FC2C4654F8106BEC4683
:1057E0000FCCACE80F000FCCACE80F0094E803003E
:1057F0008CE803002B1D0ECB304601F001FC044663
:1058000058B1022385F8BD34012420460AB070BD8A
:1058100080F8BC3403F09AFBD2E70021286802F03C
:10582000AAF9234616E003EBC30205EB820201212D
:1058300082F83D1082F83C30A2F84430002182F812
:1058400040109164D16403EBC30205EB8202516501
:105850000133DBB269688B42E5D316E004EBC40385
:1058600005EB8303002283F87D2283F87C4283F8D2
:105870008022C3F88822C3F88C2204EBC40305EB12
:105880008303C3F894220134E4B2A142E6D82C4643
:1058900054F8106BEC460FCCACE80F000FCCACE822
:1058A0000F0094E803008CE803002B1D0ECB30465C
:1058B00001F0C0FC044620B1022385F8BD34012468
:1058C000A3E7002385F83830012385F8BD34286824
:1058D00002F00FF999E7012497E7026890F8BC34C9
:1058E000012B19D010B50446012380F8BC34836A1B
:1058F000012B09D0206801F03BFC206802F0EBF896
:10590000002084F8BC0410BD8369012BF2D0936B96
:1059100043F480339363EDE70220704770B504468B
:105920000D460068066C00EB411303F530639A687E
:105930002169012911D038498E4256D03DB905EB75
:10594000C50304EB8303D3F89432002B5ED0E9B295
:10595000204603F045FB002070BD12F0080F09D06F
:105960002E498E42F7D912F4004FF4D04FF4004282
:105970009A60F0E712F0200F02D020229A60EAE746
:1059800012F0280FE7D125498E4206D912F4004FB4
:1059900003D04FF400429A60DDE705EBC50204EB4B
:1059A0008202D2F898121B69C3F31203CB1AC2F811
:1059B0009C327DB905EBC50204EB8202D2F8942239
:1059C0006AB105EBC50204EB8202D2F88C120B44DB
:1059D000C2F88C32E9B2204603F002FBBBE704F2C6
:1059E000C442012102F008F9F4E712F4004F03D099
:1059F0004FF400429A60AEE712F0200F01D020224F
:105A00009A60E9B2204603F0EBFAA4E704F2C4423C
:105A1000002102F0F1F89AE70A31544F0A30544F4E
:105A200038B5044603681D6C03EB4113D3F8081B1B
:105A30000E4A954207D903F5306311F4004F02D0A6
:105A40004FF400429A60204603F0C2FA074B9D4291
:105A500002D92369012B01D0002038BD04F2C442D1
:105A60000121206802F0C8F8F6E700BF0A30544F61
:105A700090F8BC34012B0DD010B50446012380F8FA
:105A8000BC3480F83810006802F015F8002084F863
:105A9000BC0410BD0220704738B505468C4611F095
:105AA000800F29D101F00F0E0EEBCE04A40004F5F7
:105AB0001E740444211D0EEBCE0E00EB8E0E002052
:105AC0008EF87D020CF00F0C81F800C0CA600B71DB
:105AD0004A780AB1A1F808C0022B1DD095F8BC3451
:105AE000012B1CD0012385F8BC34286801F07BFC15
:105AF000002085F8BC0438BD01F00F0000EBC001A8
